:020000040800F2
:100000000000022029EC0008EDE70008F3E70008F3
:10001000F9E70008FFE7000805E800080000000015
:100020000000000000000000000000000BE80008D5
:1000300019E800080000000027E8000835E800087B
:1000400079EC000879EC000879EC000879EC0008FC
:1000500079EC000879EC000879EC000879EC0008EC
:1000600079EC000879EC000879EC000879EC0008DC
:1000700079EC000879EC000879EC000879EC0008CC
:1000800079EC000879EC000879EC000879EC0008BC
:1000900079EC000879EC000879EC000879EC0008AC
:1000A00079EC000879EC000879EC000879EC00089C
:1000B00079EC000879EC000879EC000879EC00088C
:1000C00079EC000879EC000879EC000879EC00087C
:1000D00079EC000879EC000879EC000879EC00086C
:1000E00079EC000879EC000879EC000879EC00085C
:1000F00079EC000879EC000879EC000879EC00084C
:1001000079EC000879EC000879EC000879EC00083B
:1001100079EC000879EC000879EC000879EC00082B
:1001200079EC000879EC000879EC000879EC00081B
:1001300079EC0008000000000000000079EC0008E5
:1001400079EC000879EC000879EC000879EC0008FB
:1001500079EC000879EC000879EC000879EC0008EB
:1001600079EC000879EC000879EC000879EC0008DB
:1001700079EC000879EC000879EC00080000000038
:100180000000000079EC0008000000000000000002
:1001900079EC0008000000000000000079EC000885
:1001A00000000000000000000000000079EC0008E2
:1001B00079EC000879EC000879EC000879EC00088B
:0401C00079EC0008CE
:1001D000A3F5803A704700BF174B002B08BF134BA5
:1001E0009D46FFF7F5FF00218B460F461348144A42
:1001F000121A0EF0C0FF0E4B002B00D098470D4B8B
:10020000002B00D098470020002104000D000D486D
:10021000002802D00C48AFF300800FF061F82000F6
:10022000290000F04FF90EF029FD00BF0000080082
:10023000000000000000000000000000A0000020FE
:10024000AC03002000000000000000001C070108B3
:10025000000000209C000020A0000020AC03002033
:10026000034613F8012B002AFBD1181A01387047F6
:1002700001F0FF01102A2BDB10F0070F08D010F857
:10028000013B013A8B422DD010F0070F42B3F6D15B
:10029000F0B441EA012141EA014122F007047FF074
:1002A00000070023F0E80256083C85EA010586EACB
:1002B000010685FA47F5A3FA87F586FA47F6A5FA07
:1002C00087F68EB9EED1F0BC01F0FF0102F0070213
:1002D00032B110F8013B013A83EA010313B1F8D1BE
:1002E0000020704701387047002D06BF354603389F
:1002F000073815F0010F07D1013015F4807F02BFD8
:10030000013015F4C03F0130F0BC0138704700BF28
:1003100053B94AB9002908BF00281CBF4FF0FF316C
:100320004FF0FF3000F00CB8ADF1080C6DE904CED1
:100330000FF0DAFCDDF804E0DDE9022304B07047D9
:10034000704700BF0348044B834202D0034B03B104
:10035000184770479C0000209C000020000000000F
:100360000548064B1B1AD90F01EBA301491002D017
:10037000034B03B1184770479C0000209C000020ED
:100380000000000010B5064C237843B9FFF7DAFFF0
:10039000044B13B10448AFF300800123237010BD58
:1003A000A000002000000000B0FF000808B5054BC9
:1003B0001BB105490548AFF30080BDE80840FFF7D1
:1003C000CFBF00BF00000000A4000020B0FF000865
:1003D00080B584B000AF78607B68002B01D100232A
:1003E0001CE07B681B68B3F1FF3F08D07B685B684B
:1003F000002B04D07B689B68B3F1FF3F01D1002341
:100400000CE008200EF04CFC0346FB60FB68002B60
:1004100003D07968F86800F005F8FB6818461037D3
:10042000BD4680BD80B483B000AF786039603B6862
:10043000002B06D07B683A685A603B681A687B6874
:100440001A6000BF0C37BD465DF8047B704780B56D
:1004500082B000AF786078680EF02AFC00BF0837E1
:10046000BD4680BD80B584B000AF78607B685B68B6
:10047000FB601CE07B681A68FB681B689A4213D11A
:10048000FB685B68786898470346002B0CD0FB68D4
:100490009A687B681A60FB68DB68002B0CD0FB68ED
:1004A000DB687868984707E0FB681033FB60FB68FF
:1004B0001B68002BDEDA00E000BF00BF1037BD462E
:1004C00080BD0000F0B5ADB016AF03F007F900F045
:1004D0007DF800F049F900F0E7F800F01BF9324C24
:1004E0006846231D542219460EF02AFF23684FF454
:1004F00000724FF480712D480CF092FD2C4E6D4629
:1005000006F110040FCC0FC50FCC0FC50FCC0FC5D3
:1005100023682B6096E80F000DF0EEFF0DF0F6FA61
:100520000CF084FE234BD3E90023104619460CF04F
:10053000FDFE01200DF04CF834200CF084FF20204B
:100540000CF096FF0CF0EEFF0CF0BEFF01211A48F4
:1005500009F06AFA034687F85730202117480CF053
:1005600071FE0346002B1AD0202115480CF0BEFE68
:100570000A231B2213490E4800F026FB3B1D104A9C
:10058000114918460EF092FD3B1D1846FFF768FE14
:1005900003469AB2391D0A23054800F015FB4FF4B3
:1005A0007A7003F087F9D1E7BC0000200004024014
:1005B000140100200800002000000240100000206C
:1005C00058010020DC000108F800010880B594B053
:1005D00000AF07F11C033422002118460EF0CBFDBA
:1005E00007F1080300221A605A609A60DA601A6103
:1005F00000237B602A4B1B6C294A43F08053136411
:10060000274B1B6C03F080537B607B6800233B60AF
:10061000244B1B6823F44043224A43F48043136075
:10062000204B1B6803F440433B603B680223FB61A3
:100630000123BB621023FB6202237B630023BB63A5
:100640001023FB634FF4A8733B6404237B640223F1
:10065000BB640223FB6407F11C03184607F064FD2A
:100660000346002B01D000F0EFF80F23BB600223FC
:10067000FB6000233B614FF480537B610023BB612F
:1006800007F108030221184603F0A0FC0346002BE3
:1006900001D000F0D9F800BF5037BD4680BD00BF83
:1006A000003802400070004080B500AF174B184A78
:1006B0001A60164B4FF482725A60144B00229A60F3
:1006C000124B0022DA60114B00221A610F4B0022FC
:1006D0005A610E4B4FF400729A610C4B2022DA6182
:1006E0000A4B00221A62094B00225A62074B002271
:1006F0009A62064B0A22DA62044803F0E8FF0346D6
:10070000002B01D000F0A0F800BF80BDBC0000208D
:100710000030014080B500AF114B124A1A60104BF7
:100720004FF4E1325A600E4B00229A600C4B0022CB
:10073000DA600B4B00221A61094B0C225A61084BFC
:1007400000229A61064B0022DA61054800F081F828
:100750000346002B01D000F077F800BF80BD00BF3A
:10076000140100200044004080B588B000AF07F1BC
:100770000C0300221A605A609A60DA601A61002342
:10078000BB602D4B1B6B2C4A43F0040313632A4BB5
:100790001B6B03F00403BB60BB6800237B60264B2C
:1007A0001B6B254A43F001031363234B1B6B03F0C0
:1007B00001037B607B6800233B601F4B1B6B1E4A61
:1007C00043F0020313631C4B1B6B03F002033B60FB
:1007D0003B6800224FF44071184809F03DF94FF48E
:1007E0000053FB6000233B6100237B6107F10C0396
:1007F0001946134808F090FE0123FB6000233B617B
:1008000000237B6107F10C0319460E4808F084FEB3
:100810004FF44073FB6001233B6100237B610023A5
:10082000BB6107F10C031946044808F075FE00BFD0
:100830002037BD4680BD00BF0038024000040240A2
:10084000000802400000024080B400AF72B600BF52
:10085000FEE780B582B000AF78607B68002B01D1E5
:1008600001233FE07B6893F83D30DBB2002B06D1DB
:100870007B68002283F83C2078680DF051FF7B688C
:10088000242283F83D207B681B68DA687B681B683C
:1008900022F40052DA60786802F0ACFC7B681B68D6
:1008A0001A697B681B6822F490421A617B681B6896
:1008B0005A697B681B6822F02A025A617B681B68B0
:1008C000DA687B681B6842F40052DA607B680022B9
:1008D0001A647B68202283F83D207B68202283F8FD
:1008E0003E20002318460837BD4680BD80B582B043
:1008F00000AF78607B68002B01D1012347E07B6863
:1009000093F83D30DBB2002B06D17B68002283F8E0
:100910003C2078680DF004FF7B68242283F83D209A
:100920007B681B68DA687B681B6822F40052DA6017
:10093000786802F05FFC7B681B681A697B681B683B
:1009400022F490421A617B681B685A697B681B68B5
:1009500022F022025A617B681B685A697B681B6817
:1009600042F008025A617B681B68DA687B681B6882
:1009700042F40052DA607B6800221A647B6820220D
:1009800083F83D207B68202283F83E200023184610
:100990000837BD4680BD80B582B000AF7860396051
:1009A0007B68002B01D1012357E07B6893F83D3031
:1009B000DBB2002B06D17B68002283F83C207868EC
:1009C0000DF0AEFE7B68242283F83D207B681B6817
:1009D000DA687B681B6822F40052DA60786802F0FB
:1009E00009FC7B681B681A697B681B6822F400623B
:1009F0001A617B681B685A697B681B6822F02A02AF
:100A00005A617B681B681A697B681B6842F48042E4
:100A10001A617B681B681A697B681B6822F02002D8
:100A20001A617B681B6819697B681B683A680A430E
:100A30001A617B681B68DA687B681B6842F40052A5
:100A4000DA607B6800221A647B68202283F83D20EC
:100A50007B68202283F83E20002318460837BD46D5
:100A600080BD80B584B000AFF8600B467A60FB7241
:100A7000FB68002B01D101235FE0FB6893F83D3058
:100A8000DBB2002B06D1FB68002283F83C20F8681B
:100A90000DF046FEFB68242283F83D20FB681B68AE
:100AA000DA68FB681B6822F40052DA60F86802F02A
:100AB000A1FBFB681B681A69FB681B6822F4904263
:100AC0001A61FB681B685A69FB681B6822F02A02DE
:100AD0005A61FB681B681A69FB681B6822F00F02E9
:100AE0001A61FB681B681969FA7AFB681B680A437C
:100AF0001A61FB681B68DA68FB681B6822F40062F5
:100B0000DA60FB681B68D968FB681B687A680A436F
:100B1000DA60FB681B68DA68FB681B6842F4005205
:100B2000DA60FB6800221A64FB68202283F83D200B
:100B3000FB68202283F83E20002318461037BD466C
:100B400080BD80B582B000AF78607B68002B01D19A
:100B5000012321E07B68242283F83D207B681B6809
:100B6000DA687B681B6822F40052DA6078680DF05E
:100B70001FFE7B6800221A647B68002283F83D20F8
:100B80007B68002283F83E207B6800221A637B6822
:100B9000002283F83C20002318460837BD4680BD5C
:100BA00080B483B000AF786000BF0C37BD465DF8FD
:100BB000047B704780B483B000AF786000BF0C370F
:100BC000BD465DF8047B704780B58AB002AFF8601F
:100BD000B9603B601346FB8000237B61FB6893F8A0
:100BE0003D30DBB2202B7CD1BB68002B02D0FB88D0
:100BF000002B01D1012375E0FB6893F83C30012BF9
:100C000001D102236EE0FB68012283F83C20FB68DF
:100C100000221A64FB68212283F83D2002F0FEFDC9
:100C20007861FB68FA889A84FB68FA88DA84FB6842
:100C30009B68B3F5805F08D1FB681B69002B04D16A
:100C40000023FB61BB68BB6103E0BB68FB61002361
:100C5000BB61FB68002283F83C202AE03B680093DC
:100C60007B6900228021F86801F029FF0346002BF0
:100C700001D0032336E0FB69002B0BD1BB691B8835
:100C80001A46FB681B68C2F308025A60BB6902334C
:100C9000BB6107E0FB691A78FB681B685A60FB6957
:100CA0000133FB61FB68DB8C9BB2013B9AB2FB68B2
:100CB000DA84FB68DB8C9BB2002BCFD13B680093BE
:100CC0007B6900224021F86801F0F9FE0346002B01
:100CD00001D0032306E0FB68202283F83D20002397
:100CE00000E0022318462037BD4680BD80B58AB09B
:100CF00002AFF860B9603B601346FB8000237B6164
:100D0000FB6893F83E30DBB2202B40F08C80BB6850
:100D1000002B02D0FB88002B01D1012384E0FB686B
:100D200093F83C30012B01D102237DE0FB680122C6
:100D300083F83C20FB6800221A64FB68222283F8B7
:100D40003E20FB6800221A6302F068FD7861FB68B0
:100D5000FA889A85FB68FA88DA85FB689B68B3F5A0
:100D6000805F08D1FB681B69002B04D10023FB6165
:100D7000BB68BB6103E0BB68FB610023BB61FB6830
:100D8000002283F83C2043E03B6800937B6900220B
:100D90002021F86801F093FE0346002B01D00323C5
:100DA00042E0FB69002B0CD1FB681B685B689BB2BF
:100DB000C3F308039AB2BB691A80BB690233BB61F3
:100DC0001FE0FB689B68B3F5805F07D0FB689B68FA
:100DD000002B0AD1FB681B69002B06D1FB681B683E
:100DE0005B68DAB2FB691A7008E0FB681B685B6835
:100DF000DBB203F07F03DAB2FB691A70FB690133DF
:100E0000FB61FB68DB8D9BB2013B9AB2FB68DA8524
:100E1000FB68DB8D9BB2002BB6D1FB68202283F8E8
:100E20003E20002300E0022318462037BD4680BD47
:100E300080B485B000AFF860B9601346FB80FB68F2
:100E400093F83D30DBB2202B30D1BB68002B02D0B1
:100E5000FB88002B01D1012329E0FB6893F83C308B
:100E6000012B01D1022322E0FB68012283F83C2000
:100E7000FB68BA681A62FB68FA889A84FB68FA8889
:100E8000DA84FB6800221A64FB68212283F83D2083
:100E9000FB68002283F83C20FB681B68DA68FB686B
:100EA0001B6842F08002DA60002300E0022318464B
:100EB0001437BD465DF8047B704780B584B000AF41
:100EC000F860B9601346FB80FB6893F83E30DBB2F4
:100ED000202B1DD1BB68002B02D0FB88002B01D139
:100EE000012316E0FB6893F83C30012B01D102236B
:100EF0000FE0FB68012283F83C20FB6800221A63A4
:100F0000FB881A46B968F86801F047FE034600E01E
:100F1000022318461037BD4680BD000080B58CB056
:100F200000AFF860B9601346FB80FB6893F83D3072
:100F3000DBB2202B65D1BB68002B02D0FB88002BD5
:100F400001D101235EE0FB6893F83C30012B01D115
:100F5000022357E0FB68012283F83C20BA68FB6853
:100F60001A62FB68FA889A84FB68FA88DA84FB685C
:100F700000221A64FB68212283F83D20FB685B6B2A
:100F8000224ADA63FB685B6B214A1A64FB685B6B7D
:100F9000204ADA64FB685B6B00221A6507F10803DC
:100FA000FB62FB68586BFB6A1968FB681B680433BB
:100FB0001A46FB8808F017FFFB681B686FF04002B9
:100FC0001A60FB68002283F83C20FB681B6814331E
:100FD000BB61BB6953E8003F7B617B6943F08003E1
:100FE000BB62FB681B681433BA6A7A623B62396A77
:100FF0007A6A41E80023FB61FB69002BE5D10023FD
:1010000000E0022318463037BD4680BD192800088D
:10101000B32800082B2A000880B584B000AFF86020
:10102000B9601346FB80FB6893F83E30DBB2202B9F
:101030001DD1BB68002B02D0FB88002B01D10123FE
:1010400016E0FB6893F83C30012B01D102230FE03E
:10105000FB68012283F83C20FB6800221A63FB88AE
:101060001A46B968F86801F0D7FD034600E002238C
:1010700018461037BD4680BD80B49DB000AF786083
:101080000023FB667B6893F83C30012B01D10223DF
:1010900098E07B68012283F83C207B681B685B69D1
:1010A00003F08003802B0CBF01230023DBB2FB661F
:1010B0007B6893F83D30DBB2212B1CD1FB6E002BFB
:1010C00019D07B681B681433FB64FB6C53E8003F4A
:1010D000BB64BB6C23F08003BB667B681B68143366
:1010E000BA6EBA657B65796DBA6D41E800233B65E0
:1010F0003B6D002BE5D17B681B685B6903F0400307
:10110000402B0CBF01230023DBB2FB667B6893F806
:101110003E30DBB2222B50D1FB6E002B4DD07B68D2
:101120001B680C33BB63BB6B53E8003F7B637B6B7B
:1011300023F480737B667B681B680C337A6E7A6459
:101140003B64396C7A6C41E80023FB63FB6B002B3A
:10115000E5D17B681B6814337B627B6A53E8003FF0
:101160003B623B6A23F001033B667B681B681433D8
:101170003A6E3A63FB62F96A3A6B41E80023BB625C
:10118000BB6A002BE5D17B681B6814333B613B696C
:1011900053E8003FFB60FB6823F04003FB657B687E
:1011A0001B681433FA6DFA61BB61B969FA6941E8E9
:1011B00000237B617B69002BE5D17B68002283F8EB
:1011C0003C20002318467437BD465DF8047B704709
:1011D00080B49DB000AF78607B6893F83C30012B01
:1011E00001D102238BE07B68012283F83C207B68DD
:1011F00093F83D30DBB2212B19D17B681B68143387
:101200003B653B6D53E8003FFB64FB6C43F08003A0
:10121000FB667B681B681433FA6EFA65BB65B96DB3
:10122000FA6D41E800237B657B6D002BE5D17B687F
:1012300093F83E30DBB2222B5CD10023FB607B684D
:101240001B681B68FB607B681B685B68FB60FB6856
:101250007B681B69002B19D07B681B680C33FB6310
:10126000FB6B53E8003FBB63BB6B43F48073BB660F
:101270007B681B680C33BA6EBA647B64796CBA6C99
:1012800041E800233B643B6C002BE5D17B681B6885
:101290001433BB62BB6A53E8003F7B627B6A43F056
:1012A00001037B667B681B6814337A6E7A633B6349
:1012B000396B7A6B41E80023FB62FB6A002BE5D1B6
:1012C0007B681B6814337B617B6953E8003F3B619B
:1012D0003B6943F040033B667B681B6814333A6EFE
:1012E0003A62FB61F9693A6A41E80023BB61BB6974
:1012F000002BE5D17B68002283F83C2000231846B0
:101300007437BD465DF8047B704780B590B000AF80
:1013100078600023FB637B681B685B6903F08003D4
:10132000802B0CBF01230023DBB2FB637B6893F8A7
:101330003D30DBB2212B28D1FB6B002B25D07B6805
:101340001B6814337B627B6A53E8003F3B623B6A55
:1013500023F08003BB637B681B681433BA6B3A636A
:10136000FB62F96A3A6B41E80023BB62BB6A002B5F
:10137000E5D17B685B6B002B04D07B685B6B184608
:1013800008F089FD786801F0E5FC7B681B685B6903
:1013900003F04003402B0CBF01230023DBB2FB63AF
:1013A0007B6893F83E30DBB2222B28D1FB6B002BFD
:1013B00025D07B681B6814333B613B6953E8003FD1
:1013C000FB60FB6823F040037B637B681B6814337E
:1013D0007A6BFA61BB61B969FA6941E800237B6104
:1013E0007B69002BE5D17B689B6B002B04D07B686D
:1013F0009B6B184608F04FFD786801F0D3FC002382
:1014000018464037BD4680BD80B588B000AFF86053
:10141000B9603B601346FB80FB6893F83E30DBB25B
:10142000202B40F0C980BB68002B02D0FB88002B2A
:1014300001D10123C1E0FB6893F83C30012B01D1BD
:101440000223BAE0FB68012283F83C20FB680022FB
:101450001A64FB68222283F83E20FB6801221A638B
:1014600002F0DCF97861FB68FA889A85FB68FA88F3
:10147000DA85FB689B68B3F5805F08D1FB681B6960
:10148000002B04D10023FB61BB68BB6103E0BB6898
:10149000FB610023BB61FB68002283F83C203B68B2
:1014A00000221A8074E0FB681B681B6803F01003BD
:1014B000102B14D100233B61FB681B681B683B6148
:1014C000FB681B685B683B613B693B681B88002BC2
:1014D00005D0FB68202283F83E2000236DE0FB68E6
:1014E0001B681B6803F02003202B3CD1FB69002BF9
:1014F0000CD1FB681B685B689BB2C3F308039AB20C
:10150000BB691A80BB690233BB611FE0FB689B6843
:10151000B3F5805F07D0FB689B68002B0AD1FB689E
:101520001B69002B06D1FB681B685B68DAB2FB699C
:101530001A7008E0FB681B685B68DBB203F07F038E
:10154000DAB2FB691A70FB690133FB613B681B88E7
:1015500001339AB23B681A80FB68DB8D9BB2013B7A
:101560009AB2FB68DA85BB6AB3F1FF3F10D002F094
:1015700055F902467B69D31ABA6A9A4202D3BB6A0A
:10158000002B05D1FB68202283F83E20032314E0C2
:10159000FB68DB8D9BB2002B85D1FB689A8DFB68C5
:1015A000DB8D9BB2D31A9AB23B681A80FB6820226B
:1015B00083F83E20002300E0022318462037BD4672
:1015C00080BD80B58CB000AFF860B9601346FB8079
:1015D000FB6893F83E30DBB2202B52D1BB68002B66
:1015E00002D0FB88002B01D101234BE0FB6893F86C
:1015F0003C30012B01D1022344E0FB68012283F837
:101600003C20FB6801221A63FB881A46B968F86817
:1016100001F0C3FA034687F82F3097F82F30002BDC
:101620002CD1FB681B6B012B25D100233B61FB6890
:101630001B681B683B61FB681B685B683B613B691F
:10164000FB681B680C33BB61BB6953E8003F7B61DF
:101650007B6943F01003BB62FB681B680C33BA6AFA
:101660007A623B62396A7A6A41E80023FB61FB696E
:10167000002BE5D102E0012387F82F3097F82F30B7
:1016800000E0022318463037BD4680BD80B58CB0DF
:1016900000AFF860B9601346FB80FB6893F83E30FA
:1016A000DBB2202B52D1BB68002B02D0FB88002B71
:1016B00001D101234BE0FB6893F83C30012B01D1B1
:1016C000022344E0FB68012283F83C20FB680122EE
:1016D0001A63FB881A46B968F86801F09DFA034658
:1016E00087F82F3097F82F30002B2CD1FB681B6B1D
:1016F000012B25D100233B61FB681B681B683B6104
:10170000FB681B685B683B613B69FB681B680C33CB
:10171000BB61BB6953E8003F7B617B6943F0100309
:10172000BB62FB681B680C33BA6A7A623B62396A37
:101730007A6A41E80023FB61FB69002BE5D102E0F6
:10174000012387F82F3097F82F3000E00223184646
:101750003037BD4680BD80B5A0B000AF78607B68F3
:101760001B680C33FB65FB6D53E8003FBB65BB6D2D
:1017700023F4F073FB677B681B680C33FA6FBA665F
:101780007B66796EBA6E41E800233B663B6E002BA8
:10179000E5D17B681B681433BB64BB6C53E8003F26
:1017A0007B647B6C23F00103BB677B681B6814338D
:1017B000BA6F7A653B65396D7A6D41E80023FB6449
:1017C000FB6C002BE5D17B681B6B012B19D17B686F
:1017D0001B680C337B637B6B53E8003F3B633B6BC5
:1017E00023F010037B677B681B680C337A6F3A64C5
:1017F000FB63F96B3A6C41E80023BB63BB6B002BC6
:10180000E5D17B681B685B6903F08003802B36D1D0
:101810007B681B6814333B623B6A53E8003FFB6103
:10182000FB6923F080033B677B681B6814333A6FC6
:10183000FA62BB62B96AFA6A41E800237B627B6A9A
:10184000002BE5D17B685B6B002B18D07B685B6B52
:1018500000221A657B685B6B184608F01CFB034688
:10186000002B0CD07B685B6B184608F0DBFE034650
:10187000202B04D17B6810221A64032352E07B687A
:101880001B685B6903F04003402B36D17B681B6803
:101890001433FB60FB6853E8003FBB60BB6823F078
:1018A0004003FB667B681B681433FA6EBA617B6188
:1018B0007969BA6941E800233B613B69002BE5D1B6
:1018C0007B689B6B002B18D07B689B6B00221A6592
:1018D0007B689B6B184608F0DEFA0346002B0CD0A1
:1018E0007B689B6B184608F09DFE0346202B04D1B5
:1018F0007B6810221A64032314E07B680022DA84D8
:101900007B680022DA857B6800221A647B682022CB
:1019100083F83E207B68202283F83D207B680022EC
:101920001A63002318468037BD4680BD80B58EB04F
:1019300000AF78607B681B680C333B623B6A53E8FE
:10194000003FFB61FB6923F0C0037B637B681B687E
:101950000C337A6BFA62BB62B96AFA6A41E8002317
:101960007B627B6A002BE5D17B681B685B6903F0B7
:101970008003802B36D17B681B681433FB60FB68C7
:1019800053E8003FBB60BB6823F080033B637B6888
:101990001B6814333A6BBA617B617969BA6941E8B3
:1019A00000233B613B69002BE5D17B685B6B002B1F
:1019B00018D07B685B6B00221A657B685B6B1846EE
:1019C00008F069FA0346002B0CD07B685B6B184665
:1019D00008F028FE0346202B04D17B6810221A64ED
:1019E000032307E07B680022DA847B68202283F8E7
:1019F0003D20002318463837BD4680BD80B59AB0DB
:101A000000AF78607B681B680C33BB64BB6C53E829
:101A1000003F7B647B6C23F490737B667B681B6860
:101A20000C337A6E7A653B65396D7A6D41E8002337
:101A3000FB64FB6C002BE5D17B681B6814337B6374
:101A40007B6B53E8003F3B633B6B23F001033B663A
:101A50007B681B6814333A6E3A64FB63F96B3A6C2B
:101A600041E80023BB63BB6B002BE5D17B681B6B9C
:101A7000012B19D17B681B680C333B623B6A53E82E
:101A8000003FFB61FB6923F01003FB657B681B686B
:101A90000C33FA6DFA62BB62B96AFA6A41E8002354
:101AA0007B627B6A002BE5D17B681B685B6903F076
:101AB0004003402B36D17B681B681433FB60FB6806
:101AC00053E8003FBB60BB6823F04003BB657B6805
:101AD0001B681433BA6DBA617B617969BA6941E8F0
:101AE00000233B613B69002BE5D17B689B6B002B9E
:101AF00018D07B689B6B00221A657B689B6B18462D
:101B000008F0C9F90346002B0CD07B689B6B184684
:101B100008F088FD0346202B04D17B6810221A644C
:101B200003230AE07B680022DA857B68202283F8A1
:101B30003E207B6800221A63002318466837BD46A2
:101B400080BD000080B5A2B000AF78600123C7F867
:101B500084307B681B680C333B663B6E53E8003F68
:101B6000FB65FB6D23F4F073C7F880307B681B685E
:101B70000C33D7F88020FA66BB66B96EFA6E41E87E
:101B800000237B667B6E002BE3D17B681B681433DC
:101B9000FB64FB6C53E8003FBB64BB6C23F00103A8
:101BA000FB677B681B681433FA6FBA657B65796DD8
:101BB000BA6D41E800233B653B6D002BE5D17B68A6
:101BC0001B6B012B19D17B681B680C33BB63BB6B90
:101BD00053E8003F7B637B6B23F01003BB677B689C
:101BE0001B680C33BA6F7A643B64396C7A6C41E8D9
:101BF0000023FB63FB6B002BE5D17B685B6B002B49
:101C00000FD07B681B685B6903F08003802B04D1D5
:101C10007B685B6B534A1A6503E07B685B6B002251
:101C20001A657B689B6B002B0FD07B681B685B6918
:101C300003F04003402B04D17B689B6B4A4A1A6532
:101C400003E07B689B6B00221A657B681B685B69FD
:101C500003F08003802B2DD17B681B6814337B62DB
:101C60007B6A53E8003F3B623B6A23F080037B675B
:101C70007B681B6814337A6F3A63FB62F96A3A6BCC
:101C800041E80023BB62BB6A002BE5D17B685B6B3C
:101C9000002B0FD07B685B6B184608F06CF903468D
:101CA000002B04D07B685B6B00221A6502E00023E6
:101CB000C7F884307B681B685B6903F04003402BE6
:101CC00030D17B681B6814333B613B6953E8003FAC
:101CD000FB60FB6823F040033B677B681B681433A1
:101CE0003A6FFA61BB61B969FA6941E800237B6127
:101CF0007B69002BE5D17B689B6B002B12D07B6846
:101D00009B6B184608F037F90346002B07D07B6819
:101D10009B6B00221A650123C7F8843002E0002380
:101D2000C7F88430D7F88430012B16D17B680022A5
:101D3000DA847B680022DA857B6800221A647B687B
:101D4000202283F83D207B68202283F83E207B6898
:101D500000221A63786800F0EFFB002318468837EA
:101D6000BD4680BD932E0008F32E000880B58EB0CE
:101D700000AF78607B681B680C333B623B6A53E8BA
:101D8000003FFB61FB6923F0C0037B637B681B683A
:101D90000C337A6BFA62BB62B96AFA6A41E80023D3
:101DA0007B627B6A002BE5D17B681B685B6903F073
:101DB0008003802B3CD17B681B681433FB60FB687D
:101DC00053E8003FBB60BB6823F080033B637B6844
:101DD0001B6814333A6BBA617B617969BA6941E86F
:101DE00000233B613B69002BE5D17B685B6B002BDB
:101DF00013D07B685B6B164A1A657B685B6B184671
:101E000008F0B9F80346002B1CD07B685B6B1B6D98
:101E10007A68526B1046984714E07B680022DA8497
:101E20007B68202283F83D20786800F08FFB09E072
:101E30007B680022DA847B68202283F83D20786862
:101E400000F084FB002318463837BD4680BD00BF34
:101E5000532F000880B59AB000AF78607B681B688C
:101E60000C33BB64BB6C53E8003F7B647B6C23F496
:101E700090737B667B681B680C337A6E7A653B6572
:101E8000396D7A6D41E80023FB64FB6C002BE5D1D2
:101E90007B681B6814337B637B6B53E8003F3B63B9
:101EA0003B6B23F001033B667B681B6814333A6E7F
:101EB0003A64FB63F96B3A6C41E80023BB63BB6B8C
:101EC000002BE5D17B681B6B012B19D17B681B684C
:101ED0000C333B623B6A53E8003FFB61FB6923F034
:101EE0001003FB657B681B680C33FA6DFA62BB62FA
:101EF000B96AFA6A41E800237B627B6A002BE5D16C
:101F00007B681B685B6903F04003402B3FD17B6813
:101F10001B681433FB60FB6853E8003FBB60BB6881
:101F200023F04003BB657B681B681433BA6DBA614C
:101F30007B617969BA6941E800233B613B69002B09
:101F4000E5D17B689B6B002B13D07B689B6B194A98
:101F50001A657B689B6B184608F00DF80346002B4A
:101F600022D07B689B6B1B6D7A68926B10469847FA
:101F70001AE07B680022DA857B68202283F83E2005
:101F80007B6800221A63786800F0EAFA0CE07B684C
:101F90000022DA857B68202283F83E207B680022BD
:101FA0001A63786800F0DCFA002318466837BD46EB
:101FB00080BD00BF7D2F000880B5BAB000AF78604B
:101FC0007B681B681B68C7F8E4307B681B68DB68AC
:101FD000C7F8E0307B681B685B69C7F8DC3000231A
:101FE000C7F8D8300023C7F8D430D7F8E43003F06E
:101FF0000F03C7F8D830D7F8D830002B0FD1D7F857
:10200000E43003F02003002B09D0D7F8E03003F0D0
:102010002003002B03D0786801F030F856E2D7F89F
:10202000D830002B00F0DE80D7F8DC3003F001035D
:10203000002B06D1D7F8E03003F49073002B00F0AA
:10204000D180D7F8E43003F00103002B0BD0D7F890
:10205000E03003F48073002B05D07B681B6C43F0E9
:1020600001027B681A64D7F8E43003F00403002B04
:102070000BD0D7F8DC3003F00103002B05D07B68D0
:102080001B6C43F002027B681A64D7F8E43003F05B
:102090000203002B0BD0D7F8DC3003F00103002B38
:1020A00005D07B681B6C43F004027B681A64D7F888
:1020B000E43003F00803002B11D0D7F8E03003F030
:1020C0002003002B05D1D7F8DC3003F00103002BEF
:1020D00005D07B681B6C43F008027B681A647B6840
:1020E0001B6C002B00F0ED81D7F8E43003F02003E7
:1020F000002B08D0D7F8E03003F02003002B02D0EB
:10210000786800F0BBFF7B681B685B6903F04003E5
:10211000402B0CBF01230023DBB2C7F8D4307B680F
:102120001B6C03F00803002B03D1D7F8D430002B2D
:102130004FD0786800F036FE7B681B685B6903F05F
:102140004003402B41D17B681B681433C7F89C3097
:10215000D7F89C3053E8003FC7F89830D7F898304C
:1021600023F04003C7F8D0307B681B681433D7F8DE
:10217000D020C7F8A820C7F8A430D7F8A410D7F803
:10218000A82041E80023C7F8A030D7F8A030002BE2
:10219000D9D17B689B6B002B13D07B689B6B7D4AEE
:1021A0001A657B689B6B184607F0E5FE0346002B1B
:1021B00016D07B689B6B1B6D7A68926B10469847B4
:1021C0000EE0786800F0AEF90AE0786800F0AAF94D
:1021D00006E0786800F0A6F97B6800221A6470E1D6
:1021E00000BF6EE17B681B6B012B40F04A81D7F882
:1021F000E43003F01003002B00F04381D7F8E03007
:1022000003F01003002B00F03C810023BB607B68CF
:102210001B681B68BB607B681B685B68BB60BB6836
:102220007B681B685B6903F04003402B40F0B4807F
:102230007B689B6B1B685B68A7F8BE30B7F8BE3045
:10224000002B00F040817B689B8DB7F8BE209A423E
:1022500080F039817B68B7F8BE20DA857B689B6B9C
:10226000DB69B3F5807F00F088807B681B680C33E6
:10227000C7F88830D7F8883053E8003FC7F8843073
:10228000D7F8843023F48073C7F8B8307B681B68B4
:102290000C33D7F8B820C7F89420C7F89030D7F897
:1022A0009010D7F8942041E80023C7F88C30D7F875
:1022B0008C30002BD9D17B681B6814337B677B6F14
:1022C00053E8003F3B673B6F23F00103C7F8B4308E
:1022D0007B681B681433D7F8B420C7F88020FB67ED
:1022E000F96FD7F8802041E80023BB67BB6F002B54
:1022F000E1D17B681B6814333B663B6E53E8003FBB
:10230000FB65FB6D23F04003C7F8B0307B681B68AA
:102310001433D7F8B020FA66BB66B96EFA6E41E89E
:1023200000237B667B6E002BE3D17B68202283F841
:102330003E207B6800221A637B681B680C33FB64B9
:10234000FB6C53E8003FBB64BB6C23F01003C7F881
:10235000AC307B681B680C33D7F8AC20BA657B6562
:10236000796DBA6D41E800233B653B6D002BE3D1ED
:102370007B689B6B184607F08EFD7B689A8D7B68A7
:10238000DB8D9BB2D31A9BB21946786800F0F2F845
:1023900099E000BF6B2E00087B689A8D7B68DB8D0F
:1023A0009BB2D31AA7F8CE307B68DB8D9BB2002B93
:1023B00000F08B80B7F8CE30002B00F086807B6871
:1023C0001B680C33BB63BB6B53E8003F7B637B6BC9
:1023D00023F49073C7F8C8307B681B680C33D7F8B8
:1023E000C8207A643B64396C7A6C41E80023FB6353
:1023F000FB6B002BE3D17B681B6814337B627B6A29
:1024000053E8003F3B623B6A23F00103C7F8C43046
:102410007B681B681433D7F8C4203A63FB62F96AFF
:102420003A6B41E80023BB62BB6A002BE3D17B68B7
:10243000202283F83E207B6800221A637B681B6899
:102440000C333B613B6953E8003FFB60FB6823F0C2
:102450001003C7F8C0307B681B680C33D7F8C02066
:10246000FA61BB61B969FA6941E800237B617B6964
:10247000002BE3D1B7F8CE301946786800F07AF82F
:1024800023E0D7F8E43003F08003002B09D0D7F81D
:10249000E03003F08003002B03D0786800F086FD65
:1024A00014E0D7F8E43003F04003002B0ED0D7F847
:1024B000E03003F04003002B08D0786800F0C6FD40
:1024C00004E000BF02E000BF00E000BFE837BD4607
:1024D00080BD00BF80B483B000AF786000BF0C3710
:1024E000BD465DF8047B704780B483B000AF786070
:1024F00000BF0C37BD465DF8047B704780B483B0E5
:1025000000AF786000BF0C37BD465DF8047B7047B4
:1025100080B483B000AF786000BF0C37BD465DF873
:10252000047B704780B483B000AF786000BF0C3785
:10253000BD465DF8047B704780B483B000AF78601F
:1025400000BF0C37BD465DF8047B704780B483B094
:1025500000AF786000BF0C37BD465DF8047B704764
:1025600080B483B000AF786000BF0C37BD465DF823
:10257000047B704780B483B000AF78600B467B80EB
:1025800000BF0C37BD465DF8047B704780B489B04E
:1025900000AF78607B6893F83C30012B01D10223B7
:1025A0002AE07B68012283F83C207B68242283F8A0
:1025B0003D207B681B680C33FB60FB6853E8003FE1
:1025C000BB60BB6843F00103FB617B681B680C3395
:1025D000FA69BA617B617969BA6941E800233B61B4
:1025E0003B69002BE5D17B68202283F83D207B6886
:1025F000002283F83C20002318462437BD465DF8AE
:10260000047B704780B489B000AF78607B6893F832
:102610003C30012B01D102232AE07B68012283F8A0
:102620003C207B68242283F83D207B681B680C33A8
:10263000FB60FB6853E8003FBB60BB6843F00203EC
:10264000FB617B681B680C33FA69BA617B6179694D
:10265000BA6941E800233B613B69002BE5D17B6807
:10266000202283F83D207B68002283F83C20002351
:1026700018462437BD465DF8047B704780B489B0A6
:1026800000AF78607B6893F83C30012B01D10223C6
:102690002AE07B68012283F83C207B68242283F8AF
:1026A0003D207B681B680C33FB60FB6853E8003FF0
:1026B000BB60BB6823F00203FB617B681B680C33C3
:1026C000FA69BA617B617969BA6941E800233B61C3
:1026D0003B69002BE5D17B68202283F83D207B6895
:1026E000002283F83C20002318462437BD465DF8BD
:1026F000047B704780B485B000AF78600023FB6036
:102700007B6893F83C30012B01D1022320E07B68E9
:10271000012283F83C207B68242283F83D207B68DB
:102720001B68DB68FB60FB6823F00C03FB60FB6845
:1027300043F00803FB607B681B68FA68DA607B681B
:10274000202283F83D207B68002283F83C20002370
:1027500018461437BD465DF8047B704780B485B0D9
:1027600000AF78600023FB607B6893F83C30012B5E
:1027700001D1022320E07B68012283F83C207B68A2
:10278000242283F83D207B681B68DB68FB60FB68C4
:1027900023F00C03FB60FB6843F00403FB607B68E1
:1027A0001B68FA68DA607B68202283F83D207B682A
:1027B000002283F83C20002318461437BD465DF8FC
:1027C000047B704780B485B000AF78600023FB6065
:1027D0000023BB607B6893F83D30DBB2FB607B6815
:1027E00093F83E30DBB2BB60FB68DAB2BB68DBB2A9
:1027F0001343DBB218461437BD465DF8047B7047BF
:1028000080B483B000AF78607B681B6C18460C37CF
:10281000BD465DF8047B704780B590B000AF78602E
:102820007B689B6BFB637B681B681B6803F480738E
:10283000002B37D1FB6B0022DA84FB6B1B6814334F
:102840007B627B6A53E8003F3B623B6A23F0800374
:10285000BB63FB6B1B681433BA6B3A63FB62F96AA8
:102860003A6B41E80023BB62BB6A002BE5D1FB6BEE
:102870001B680C333B613B6953E8003FFB60FB681E
:1028800043F040037B63FB6B1B680C337A6BFA618C
:10289000BB61B969FA6941E800237B617B69002B60
:1028A000E5D102E0F86BFFF715FE00BF4037BD46EB
:1028B00080BD80B584B000AF78607B689B6BFB60A7
:1028C000F868FFF711FE00BF1037BD4680BD80B528
:1028D0009CB000AF78607B689B6BFB667B681B6875
:1028E0001B6803F48073002B72D1FB6E0022DA8523
:1028F000FB6E1B680C33FB64FB6C53E8003FBB644E
:10290000BB6C23F48073BB66FB6E1B680C33BA6E22
:10291000BA657B65796DBA6D41E800233B653B6D17
:10292000002BE5D1FB6E1B681433BB63BB6B53E814
:10293000003F7B637B6B23F001037B66FB6E1B68B0
:1029400014337A6E7A643B64396C7A6C41E8002304
:10295000FB63FB6B002BE5D1FB6E1B6814337B62C2
:102960007B6A53E8003F3B623B6A23F040033B66CF
:10297000FB6E1B6814333A6E3A63FB62F96A3A6B7A
:1029800041E80023BB62BB6A002BE5D1FB6E20222D
:1029900083F83E20FB6E1B6B012B19D1FB6E1B686D
:1029A0000C333B613B6953E8003FFB60FB6823F05D
:1029B0001003FB65FB6E1B680C33FA6DFA61BB619B
:1029C000B969FA6941E800237B617B69002BE5D195
:1029D000FB6E1B6B012B06D1FB6E9B8D1946F86EAF
:1029E000FFF7C8FD02E0F86EFFF788FD00BF703703
:1029F000BD4680BD80B584B000AF78607B689B6BBE
:102A0000FB60FB681B6B012B08D1FB689B8D5B088F
:102A10009BB21946F868FFF7ADFD02E0F868FFF7D2
:102A200077FD00BF1037BD4680BD80B584B000AFD4
:102A300078600023FB607B689B6BBB60BB681B6896
:102A40005B6903F08003802B0CBF01230023DBB202
:102A5000FB60BB6893F83D30DBB2212B08D1FB68EB
:102A6000002B05D0BB680022DA84B86800F072F948
:102A7000BB681B685B6903F04003402B0CBF01235C
:102A80000023DBB2FB60BB6893F83E30DBB2222B45
:102A900008D1FB68002B05D0BB680022DA85B86836
:102AA00000F080F9BB681B6C43F01002BB681A642D
:102AB000B868FFF737FD00BF1037BD4680BD80B551
:102AC00090B000AFF860B9603B601346FB7150E016
:102AD000BB6CB3F1FF3F4CD0BB6C002B07D000F0B8
:102AE0009DFE02463B68D31ABA6C9A4241D2FB68FB
:102AF0001B680C33BB62BB6A53E8003F7B627B6A96
:102B000023F4D073FB63FB681B680C33FA6B7A63A6
:102B10003B63396B7A6B41E80023FB62FB6A002B55
:102B2000E5D1FB681B6814337B617B6953E8003F88
:102B30003B613B6923F00103BB63FB681B681433F3
:102B4000BA6B3A62FB61F9693A6A41E80023BB61FA
:102B5000BB69002BE5D1FB68202283F83D20FB6890
:102B6000202283F83E20FB68002283F83C200323C8
:102B70000FE0FB681B681A68BB681340BA689A428A
:102B80000CBF01230023DBB21A46FB799A429FD087
:102B9000002318464037BD4680BD80B485B000AFE5
:102BA000F860B9601346FB80FB68BA689A62FB68FC
:102BB000FA889A85FB68FA88DA85FB6800221A642D
:102BC000FB68222283F83E20FB68002283F83C2029
:102BD000FB681B69002B07D0FB681B68DA68FB6881
:102BE0001B6842F48072DA60FB681B685A69FB68F4
:102BF0001B6842F001025A61FB681B68DA68FB68D7
:102C00001B6842F02002DA60002318461437BD46E4
:102C10005DF8047B7047000080B598B000AFF860A5
:102C2000B9601346FB80BA68FB689A62FB68FA8851
:102C30009A85FB6800221A64FB68222283F83E20F2
:102C4000FB689B6B404ADA63FB689B6B3F4A1A64E4
:102C5000FB689B6B3E4ADA64FB689B6B00221A653B
:102C600007F10803FB65FB68986BFB681B6804337E
:102C70001946FB6D1A68FB8807F0B5F800233B6125
:102C8000FB681B681B683B61FB681B685B683B61FA
:102C90003B69FB68002283F83C20FB681B69002B22
:102CA00019D0FB681B680C333B643B6C53E8003F56
:102CB000FB63FB6B43F48073BB65FB681B680C33E1
:102CC000BA6DFA64BB64B96CFA6C41E800237B64AA
:102CD0007B6C002BE5D1FB681B681433FB62FB6A3D
:102CE00053E8003FBB62BB6A43F001037B65FB68AE
:102CF0001B6814337A6DBA637B63796BBA6B41E8F6
:102D000000233B633B6B002BE5D1FB681B6814334E
:102D1000BB61BB6953E8003F7B617B6943F04003C3
:102D20003B65FB681B6814333A6D7A623B62396A13
:102D30007A6A41E80023FB61FB69002BE5D100239F
:102D400018466037BD4680BDCF280008F529000829
:102D50002B2A000880B489B000AF78607B681B68BC
:102D60000C33FB60FB6853E8003FBB60BB6823F09B
:102D7000C003FB617B681B680C33FA69BA617B6135
:102D80007969BA6941E800233B613B69002BE5D1D1
:102D90007B68202283F83D2000BF2437BD465DF8C4
:102DA000047B704780B495B000AF78607B681B6887
:102DB0000C337B637B6B53E8003F3B633B6B23F43B
:102DC0009073FB647B681B680C33FA6C3A64FB639A
:102DD000F96B3A6C41E80023BB63BB6B002BE5D178
:102DE0007B681B6814333B623B6A53E8003FFB611E
:102DF000FB6923F00103BB647B681B681433BA6C66
:102E0000FA62BB62B96AFA6A41E800237B627B6AB4
:102E1000002BE5D17B681B6B012B19D17B681B68EC
:102E20000C33FB60FB6853E8003FBB60BB6823F0DA
:102E300010037B647B681B680C337A6CBA617B611E
:102E40007969BA6941E800233B613B69002BE5D110
:102E50007B68202283F83E207B6800221A6300BF33
:102E60005437BD465DF8047B704780B584B000AF31
:102E700078607B689B6BFB60FB680022DA85FB68EF
:102E80000022DA84F868FFF74DFB00BF1037BD461B
:102E900080BD80B584B000AF78607B689B6BFB60C1
:102EA000FB685B6B00221A65FB689B6B002B04D0F0
:102EB000FB689B6B1B6D002B17D1FB680022DA842B
:102EC000FB680022DA85FB6800221A64FB68202276
:102ED00083F83D20FB68202283F83E20FB68002217
:102EE0001A63F868FFF728FB00E000BF1037BD4603
:102EF00080BD80B584B000AF78607B689B6BFB6061
:102F0000FB689B6B00221A65FB685B6B002B04D08F
:102F1000FB685B6B1B6D002B17D1FB680022DA840A
:102F2000FB680022DA85FB6800221A64FB68202215
:102F300083F83D20FB68202283F83E20FB680022B6
:102F40001A63F868FFF7F8FA00E000BF1037BD46D3
:102F500080BD80B584B000AF78607B689B6BFB6000
:102F6000FB680022DA84FB68202283F83D20F868A1
:102F7000FFF7ECFA00BF1037BD4680BD80B584B0C6
:102F800000AF78607B689B6BFB60FB680022DA8592
:102F9000FB68202283F83E20FB6800221A63F86851
:102FA000FFF7DEFA00BF1037BD4680BD80B485B0A4
:102FB00000AF78607B6893F83D30DBB2212B3ED1C7
:102FC0007B689B68B3F5805F14D17B681B69002B1D
:102FD00010D17B681B6AFB60FB681B881A467B6804
:102FE0001B68C2F308025A607B681B6A9A1C7B68E4
:102FF0001A6208E07B681B6A591C7A6811621A78A9
:103000007B681B685A607B68DB8C9BB2013B9BB280
:103010007A681946D184002B0FD17B681B68DA6867
:103020007B681B6822F08002DA607B681B68DA68C4
:103030007B681B6842F04002DA60002300E0022354
:1030400018461437BD465DF8047B704780B582B0E2
:1030500000AF78607B681B68DA687B681B6822F0C9
:103060004002DA607B68202283F83D207868FFF711
:1030700031FA002318460837BD4680BD80B58CB0B4
:1030800000AF78607B6893F83E30DBB2222B40F0D3
:10309000AB807B689B68B3F5805F17D17B681B6949
:1030A000002B13D10023FB627B689B6ABB627B68A9
:1030B0001B685B689BB2C3F308039AB2BB6A1A80B1
:1030C0007B689B6A9A1C7B689A6226E07B689B6A95
:1030D000FB620023BB627B689B68B3F5805F07D00F
:1030E0007B689B68002B0AD17B681B69002B06D18B
:1030F0007B681B685B68DAB2FB6A1A7008E07B6861
:103100001B685B68DBB203F07F03DAB2FB6A1A70FC
:103110007B689B6A5A1C7B689A627B68DB8D9BB2DA
:10312000013B9BB27A681946D185002B5AD17B6846
:103130001B68DA687B681B6822F02002DA607B6813
:103140001B68DA687B681B6822F48072DA607B682F
:103150001B685A697B681B6822F001025A617B6810
:10316000202283F83E207B681B6B012B35D17B68C6
:1031700000221A637B681B680C337B617B6953E810
:10318000003F3B613B6923F010037B627B681B6857
:103190000C337A6A3A62FB61F9693A6A41E80023C2
:1031A000BB61BB69002BE5D17B681B681B6803F022
:1031B0001003102B0AD10023FB607B681B681B687F
:1031C000FB607B681B685B68FB60FB687B689B8DB2
:1031D00019467868FFF7CEF902E07868FFF78EF9B4
:1031E000002302E0002300E0022318463037BD46EA
:1031F00080BD00002DE9B04FC0B000AFC7F8F400AB
:10320000D7F8F4301B681B6923F44050D7F8F4302A
:10321000D968D7F8F4301A6840EA01031361D7F887
:10322000F4309A68D7F8F4301B691A43D7F8F430B1
:103230005B691A43D7F8F430DB691343C7F8F830F9
:10324000D7F8F4301B68DB6823F4164121F00C0139
:10325000D7F8F4301A68D7F8F8300B43D360D7F8B2
:10326000F4301B685B6923F44070D7F8F430996937
:10327000D7F8F4301A6840EA01035361D7F8F43004
:103280001A688F4B9A4205D0D7F8F4301A688D4BE4
:103290009A4204D101F026F9C7F8FC0003E001F0DE
:1032A0000DF9C7F8FC00D7F8F430DB69B3F5004F2F
:1032B00040F00C81D7F8FC300022C7F8E830C7F89E
:1032C000EC20D7E93A4522462B469118B9655B4177
:1032D000FB65D7E91623214612EB0108294643EB8B
:1032E00001094FF000024FF000034FEAC90343EA1F
:1032F00058734FEAC80290469946234618EB0303D9
:10330000C7F8E0302B4649EB0303C7F8E430D7F8A1
:10331000F4305B680022C7F8D830C7F8DC20D7E962
:1033200036120B46DB183B65134642EB03037B6505
:10333000D7E91423D7E93801FCF7EAFF02460B4628
:10334000614BA3FB02235B091C01D7F8FC30002270
:10335000C7F8D030C7F8D420D7E9348942464B4665
:103360009118B9645B41FB64D7E91223414612EB23
:10337000010A494643EB010B4FF000024FF00003F6
:103380004FEACB0343EA5A734FEACA0292469B467E
:1033900043461AEB0303C7F8C8304B464BEB030315
:1033A000C7F8CC30D7F8F4305B680022C7F8C030DB
:1033B000C7F8C420D7E930120B46DB183B6413462C
:1033C00042EB03037B64D7E91023D7E93201FCF712
:1033D0009FFF02460B4611463B4BA3FB01235B09B3
:1033E000642202FB03F3CB1ADB0003F13202364BFB
:1033F000A3FB02235B095B0003F4F8731C44D7F8BA
:10340000FC300022C7F8B830C7F8BC20D7E92E89B5
:1034100042464B469118B9635B41FB63D7E90E23E3
:1034200041465118396349464B417B634FF00002D6
:103430004FF00003D7E90CAB5946CB00514643EAA5
:1034400051735146CA0010461946034642469B181E
:10345000C7F8B0304B460A4642EB0303C7F8B43016
:10346000D7F8F4305B680022C7F8A830C7F8AC2062
:10347000D7E92A120B46DB18BB62134642EB030363
:10348000FB62D7E90A23D7E92C01FCF741FF02468A
:103490000B460D4BA3FB02135B09642101FB03F3F5
:1034A000D31ADB003233084AA2FB03235B0903F083
:1034B0000702D7F8F4301B6822449A6006E100BF87
:1034C00000100140001401401F85EB51D7F8FC307B
:1034D0000022C7F8A030C7F8A420D7E928894246BF
:1034E0004B46911839625B417B62D7E9082341461C
:1034F0005418494643EB01054FF000024FF000031A
:10350000EB0043EA5473E20014461D464346E318B9
:10351000C7F898304B4645EB0303C7F89C30D7F803
:10352000F4305B680022C7F89030C7F894204FF061
:1035300000024FF00003D7E9244529468B002146BD
:1035400043EA917321468A00D7E92601FCF7E0FEA1
:1035500002460B46604BA3FB02235B091C01D7F814
:10356000FC300022C7F88830C7F88C20D7E92289C0
:1035700042464B469118B9615B41FB61D7E906238E
:1035800041465118396149464B417B614FF0000279
:103590004FF00003D7E904AB5946CB00514643EA4C
:1035A00051735146CA0010461946034642469B18BD
:1035B000C7F880304B460A4642EB0303C7F8843015
:1035C000D7F8F4305B680022BB67FA674FF000025F
:1035D0004FF00003D7E91E8949468B00414643EA74
:1035E000917341468A00D7E92001FCF791FE02461B
:1035F0000B461146384BA3FB01235B09642202FBF7
:1036000003F3CB1A1B013233334AA2FB03235B09BA
:1036100003F0F0031C44D7F8FC3000223B677A67C4
:10362000D7E91C8942464B469118B9605B41FB6063
:10363000D7E9022341465118396049464B417B6026
:103640004FF000024FF00003D7E900AB5946CB0022
:10365000514643EA51735146CA0010461946034683
:1036600042469B18BB664B460A4642EB0303FB6689
:10367000D7F8F4305B6800223B667A664FF00002B0
:103680004FF00003D7E9188949468B00414643EAC9
:10369000917341468A00D7E91A01FCF739FE0246C8
:1036A0000B460D4BA3FB02135B09642101FB03F3E3
:1036B000D31A1B013233084AA2FB03235B0903F030
:1036C0000F02D7F8F4301B6822449A6000BF07F558
:1036D0008077BD46BDE8B08F1F85EB5180B500AF48
:1036E0000E4B1B680D4A43F4007313600B4B1B68B1
:1036F0000A4A43F480631360084B1B68074A43F48B
:1037000080731360032008F0A9FF002000F042F846
:103710000AF078FF0023184680BD00BF003C02403D
:1037200080B500AF134B4FF0FF321A62114B0022ED
:103730001A62104B4FF0FF325A620E4B00225A624F
:103740000C4B4FF0FF321A610A4B00221A61094BF1
:103750004FF0FF325A61074B00225A61054B4FF080
:10376000FF329A61034B00229A6100F00CF80023AB
:10377000184680BD0038024080B400AF00BFBD468F
:103780005DF8047B704780B400AF00BFBD465DF8B4
:10379000047B704780B582B000AF7860124B1A6826
:1037A000124B1B7819464FF47A73B3FBF1F3B2FB5B
:1037B000F3F3184608F099FF0346002B01D00123CC
:1037C0000EE07B680F2B0AD8002279684FF0FF309B
:1037D00008F04FFF064A7B681360002300E00123D6
:1037E00018460837BD4680BD3C000020340000204C
:1037F0003000002080B400AF064B1B781A46064B01
:103800001B681344044A136000BFBD465DF8047B87
:10381000704700BF340000207801002080B400AF62
:10382000034B1B681846BD465DF8047B704700BF1C
:103830007801002080B400AF034B1B681846BD46DA
:103840005DF8047B704700BF3000002080B584B075
:1038500000AF0346FB710023FB730E4B1B78FA7914
:103860009A4212D00B4B1B78BB730A4AFB79137038
:10387000094B1B681846FFF78DFF0346FB73FB7B64
:10388000002B02D0034ABB7B1370FB7B184610371A
:10389000BD4680BD340000203000002080B400AF61
:1038A000034B1B781846BD465DF8047B704700BF8C
:1038B0003400002080B584B000AF7860FFF7AEFF21
:1038C000B8607B68FB60FB68B3F1FF3F05D00A4B33
:1038D0001B781A46FB681344FB6000BFFFF79EFF8E
:1038E0000246BB68D31AFA689A42F7D800BF00BFF5
:1038F0001037BD4680BD00BF3400002080B400AF4B
:10390000054B1B68044A23F00203136000BFBD4649
:103910005DF8047B704700BF10E000E080B400AFAA
:10392000054B1B68044A43F00203136000BFBD4609
:103930005DF8047B704700BF10E000E080B400AF8A
:10394000024B1846BD465DF8047B70470001080134
:1039500080B400AF034B1B681B0C1846BD465DF8D6
:10396000047B7047002004E080B400AF044B1B6868
:10397000C3F30B031846BD465DF8047B704700BFD8
:10398000002004E080B400AF054B5B68044A43F0BC
:103990000103536000BFBD465DF8047B704700BF64
:1039A000002004E080B400AF054B5B68044A23F0BC
:1039B0000103536000BFBD465DF8047B704700BF44
:1039C000002004E080B400AF054B5B68044A43F07C
:1039D0000203536000BFBD465DF8047B704700BF23
:1039E000002004E080B400AF054B5B68044A23F07C
:1039F0000203536000BFBD465DF8047B704700BF03
:103A0000002004E080B400AF054B5B68044A43F03B
:103A10000403536000BFBD465DF8047B704700BFE0
:103A2000002004E080B400AF054B5B68044A23F03B
:103A30000403536000BFBD465DF8047B704700BFC0
:103A4000002004E080B400AF034B01221A6000BFE5
:103A5000BD465DF8047B70470004274280B400AF88
:103A6000034B00221A6000BFBD465DF8047B70471F
:103A70000004274280B400AF034B1B681846BD46C4
:103A80005DF8047B704700BF107AFF1F80B400AF61
:103A9000034B1B681846BD465DF8047B704700BFAA
:103AA000147AFF1F80B400AF034B1B681846BD4655
:103AB0005DF8047B704700BF187AFF1F80B400AF29
:103AC00000231846BD465DF8047B704780B586B07C
:103AD00000AF78607B68002B01D101236FE27B6827
:103AE0001B6803F00103002B75D0884B9B6803F023
:103AF0000C03042B0CD0854B9B6803F00C03082BA4
:103B000012D1824B5B6803F48003B3F5800F0BD1B5
:103B10007E4B1B6803F40033002B5BD07B685B6833
:103B2000002B57D101234AE27B685B68B3F5803FE5
:103B300006D1764B1B68754A43F4803313601DE051
:103B40007B685B68B3F5A02F0CD1704B1B686F4A84
:103B500043F4802313606D4B1B686C4A43F480333D
:103B600013600BE0694B1B68684A23F480331360D1
:103B7000664B1B68654A23F4802313607B685B688F
:103B8000002B13D0FFF74AFE386108E0FFF746FE2E
:103B900002463B69D31A642B01D903230FE25B4B26
:103BA0001B6803F40033002BF0D014E0FFF736FE5F
:103BB000386108E0FFF732FE02463B69D31A642BF6
:103BC00001D90323FBE1514B1B6803F40033002BA5
:103BD000F0D100E000BF7B681B6803F00203002BFC
:103BE00063D04A4B9B6803F00C03002B0BD0474B70
:103BF0009B6803F00C03082B1CD1444B5B6803F457
:103C00008003002B16D1414B1B6803F00203002BED
:103C100005D07B68DB68012B01D00123CFE13B4B52
:103C20001B6823F0F8027B681B69DB0037491343EC
:103C30000B603AE07B68DB68002B20D0344B01221C
:103C40001A60FFF7EBFD386108E0FFF7E7FD024679
:103C50003B69D31A022B01D90323B0E12B4B1B681C
:103C600003F00203002BF0D0284B1B6823F0F8026E
:103C70007B681B69DB00254913430B6015E0244B6F
:103C800000221A60FFF7CAFD386108E0FFF7C6FDA1
:103C900002463B69D31A022B01D903238FE11B4B48
:103CA0001B6803F00203002BF0D17B681B6803F054
:103CB0000803002B36D07B685B69002B16D0154BB0
:103CC00001221A60FFF7AAFD386108E0FFF7A6FDA0
:103CD00002463B69D31A022B01D903236FE10B4B38
:103CE0005B6F03F00203002BF0D01BE0094B0022B6
:103CF0001A60FFF793FD38610EE0FFF78FFD024673
:103D00003B69D31A022B07D9032358E1003802403C
:103D100000004742800E4742884B5B6F03F002036E
:103D2000002BEAD17B681B6803F00403002B00F032
:103D300097800023FB75814B1B6C03F08053002B95
:103D40000FD10023BB607D4B1B6C7C4A43F080533A
:103D500013647A4B1B6C03F08053BB60BB68012378
:103D6000FB75774B1B6803F48073002B18D1744BE1
:103D70001B68734A43F480731360FFF74FFD38618B
:103D800008E0FFF74BFD02463B69D31A022B01D92D
:103D9000032314E16A4B1B6803F48073002BF0D0FB
:103DA0007B689B68012B06D1644B1B6F634A43F011
:103DB000010313671CE07B689B68052B0CD15F4BEC
:103DC0001B6F5E4A43F0040313675C4B1B6F5B4A37
:103DD00043F0010313670BE0584B1B6F574A23F066
:103DE00001031367554B1B6F544A23F004031367F9
:103DF0007B689B68002B15D0FFF710FD38610AE047
:103E0000FFF70CFD02463B69D31A41F28832934218
:103E100001D90323D3E0494B1B6F03F00203002BAE
:103E2000EED014E0FFF7FAFC38610AE0FFF7F6FC89
:103E300002463B69D31A41F28832934201D90323E7
:103E4000BDE03E4B1B6F03F00203002BEED1FB7D68
:103E5000012B05D1394B1B6C384A23F08053136476
:103E60007B689B69002B00F0A980344B9B6803F0B2
:103E70000C03082B5CD07B689B69022B41D1314B32
:103E800000221A60FFF7CAFC386108E0FFF7C6FCA1
:103E900002463B69D31A022B01D903238FE0274B3B
:103EA0001B6803F00073002BF0D17B68DA697B6834
:103EB0001B6A1A437B685B6A9B011A437B689B6A97
:103EC0005B08013B1B041A437B68DB6A1B061B492A
:103ED00013434B601B4B01221A60FFF79FFC3861B4
:103EE00008E0FFF79BFC02463B69D31A022B01D97D
:103EF000032364E0114B1B6803F00073002BF0D028
:103F00005CE0104B00221A60FFF788FC386108E083
:103F1000FFF784FC02463B69D31A022B01D9032325
:103F20004DE0064B1B6803F00073002BF0D145E019
:103F30007B689B69012B07D1012340E000380240D8
:103F400000700040600047421F4B5B68FB607B686D
:103F50009B69012B30D0FB6803F480027B68DB692E
:103F60009A4229D1FB6803F03F027B681B6A9A42A0
:103F700022D1FA6847F6C07313407A68526A9201F8
:103F8000934219D1FB6803F440327B689B6A5B085B
:103F9000013B1B049A420FD1FB6803F070627B68FF
:103FA000DB6A1B069A4207D1FB6803F0E0427B689C
:103FB0001B6B1B079A4201D0012300E00023184627
:103FC0001837BD4680BD00BF0038024080B584B0C0
:103FD00000AF786039607B68002B01D10123CCE011
:103FE000684B1B6803F00F033A689A420CD9654B83
:103FF0003A68D2B21A70634B1B6803F00F033A6839
:104000009A4201D00123B8E07B681B6803F00203E9
:10401000002B20D07B681B6803F00403002B05D025
:10402000594B9B68584A43F4E05393607B681B6884
:1040300003F00803002B05D0534B9B68524A43F40E
:1040400060439360504B9B6823F0F0027B689B6851
:104050004D4913438B607B681B6803F00103002B01
:1040600044D07B685B68012B07D1474B1B6803F486
:104070000033002B19D101237FE07B685B68022BA2
:1040800003D07B685B68032B07D13F4B1B6803F0B1
:104090000073002B09D101236FE03B4B1B6803F039
:1040A0000203002B01D1012367E0374B9B6823F00B
:1040B00003027B685B68344913438B60FFF7AEFBF8
:1040C000F8600AE0FFF7AAFB0246FB68D31A41F248
:1040D0008832934201D903234FE02B4B9B6803F0B6
:1040E0000C027B685B689B009A42EBD1254B1B68F6
:1040F00003F00F033A689A420CD2224B3A68D2B2CC
:104100001A70204B1B6803F00F033A689A4201D0E3
:10411000012332E07B681B6803F00403002B08D006
:10412000194B9B6823F4E0527B68DB681649134304
:104130008B607B681B6803F00803002B09D0124BCF
:104140009B6823F460427B681B69DB000E491343C4
:104150008B6003F0C1FC02460B4B9B681B0903F00C
:104160000F030A49CB5C22FA03F3094A1360094B97
:104170001B681846FFF70EFB002318461037BD4694
:1041800080BD00BF003C0240003802409C06010890
:104190003C0000203000002080B58CB000AFF860FB
:1041A000B9607A60FB68002B29D10023BB612B4BDF
:1041B0001B6B2A4A43F001031363284B1B6B03F06C
:1041C0000103BB61BB694FF48073FB6102233B6257
:1041D0000323BB6200237B620023FB6207F11C0305
:1041E00019461F4805F098F91C4B9B6823F0EC62B8
:1041F000B9687B680B43194913438B6029E000239E
:104200007B61164B1B6B154A43F004031363134B7E
:104210001B6B03F004037B617B694FF40073FB614C
:1042200002233B620323BB6200237B620023FB6209
:1042300007F11C0319460B4805F06EF9074B9B6804
:1042400023F078427B68D900BB680B4303491343D2
:104250008B6000BF3037BD4680BD00BF00380240D4
:10426000000002400008024080B400AF034B01226E
:104270001A6000BFBD465DF8047B70474C004742A2
:1042800080B400AF034B00221A6000BFBD465DF84A
:10429000047B70474C0047422DE9B04F94B000AF0B
:1042A00000237B640023FB6400233B640023BB6486
:1042B000794B9B6803F00C03082B0DD0082B00F200
:1042C000E180002B02D0042B03D0DBE0734BBB64F6
:1042D000DBE0734BBB64D8E06F4B5B6803F03F03DC
:1042E0007B646D4B5B6803F48003002B63D06A4BE7
:1042F0005B689B090022BB63FA63BB6BC3F30803D3
:104300003B6300237B63D7E90C4522462B464FF0E5
:1043100000004FF00001590141EAD261500102460C
:104320000B462146511A3961294663EB01037B6133
:104330004FF000024FF00003D7E904AB59468B0160
:10434000514643EA916351468A015146B2EB010856
:10435000594663EB01094FF000024FF000034FEAAA
:10436000C90343EA58734FEAC80290469946234668
:1043700018EB0303BB602B4649EB0303FB604FF0D4
:1043800000024FF00003D7E9024529464B022146BF
:1043900043EAD15321464A02104619467B6C00225B
:1043A000BB62FA62D7E90A23FBF7B2FF02460B466B
:1043B0001346FB6458E0384B5B689B0900221846A3
:1043C0001146C0F308033B6200237B62D7E90889EA
:1043D00042464B464FF000004FF00001590141EAC0
:1043E000D261500102460B464146B2EB010A4946F2
:1043F00063EB010B4FF000024FF000034FEA8B1309
:1044000043EA9A634FEA8A12B2EB0A0463EB0B05A4
:104410004FF000024FF00003EB0043EA5473E20058
:1044200014461D464346E3183B604B4645EB0303E9
:104430007B604FF000024FF00003D7E900452946AA
:104440008B02214643EA915321468A0210461946BF
:104450007B6C0022BB61FA61D7E90623FBF758FFAA
:1044600002460B461346FB640B4B5B681B0C03F0C8
:10447000030301335B003B64FA6C3B6CB2FBF3F368
:10448000BB6402E0054BBB6400BFBB6C18465037F1
:10449000BD46BDE8B08F00BF003802400024F400E4
:1044A00000127A0080B400AF034B1B681846BD466B
:1044B0005DF8047B704700BF3C00002080B500AF72
:1044C000FFF7F0FF0246054B9B689B0A03F00703CA
:1044D0000349CB5C22FA03F3184680BD0038024042
:1044E000AC06010880B500AFFFF7DCFF0246054BC4
:1044F0009B685B0B03F007030349CB5C22FA03F3D1
:10450000184680BD00380240AC06010880B483B074
:1045100000AF78607B680F221A60454B1B6803F47C
:104520008023B3F5802F04D17B684FF4A0225A601A
:104530000EE03F4B1B6803F48033B3F5803F04D19A
:104540007B684FF480325A6002E07B6800225A6038
:10455000374B1B6803F00103012B03D17B68012259
:10456000DA6002E07B680022DA60314B1B68DB080E
:1045700003F01F027B681A612D4B1B6F03F00403CD
:10458000042B03D17B6805229A600CE0284B1B6F3B
:1045900003F00103012B03D17B6801229A6002E042
:1045A0007B6800229A60224B5B6F03F00103012BB2
:1045B00003D17B6801225A6102E07B6800225A61C4
:1045C0001B4B1B6803F08073B3F1807F03D17B68C2
:1045D00002229A6102E07B6801229A61144B5B68B7
:1045E00003F480027B68DA61114B5B6803F03F02E1
:1045F0007B681A620E4B5B689B09C3F308027B68F9
:104600005A620B4B5B6803F4403303F580335B0065
:104610001A0C7B689A62064B5B681B0E03F00F0254
:104620007B68DA6200BF0C37BD465DF8047B7047DB
:104630000038024080B483B000AF786039607B6896
:104640000F221A60124B9B6803F003027B685A60CA
:104650000F4B9B6803F0F0027B689A600C4B9B68E1
:1046600003F4E0527B68DA60094B9B68DB0803F4D3
:10467000E0527B681A61074B1B6803F00F023B682E
:104680001A6000BF0C37BD465DF8047B704700BF61
:1046900000380240003C024080B500AF064BDB68AA
:1046A00003F08003802B04D100F00AF8034B802232
:1046B0001A7000BF80BD00BF003802400E380240B3
:1046C00080B400AF00BFBD465DF8047B704780B585
:1046D00082B000AF78607B68002B01D101237BE0C2
:1046E0007B685B6A002B08D17B685B68B3F5827FCF
:1046F00009D07B680022DA6105E07B6800221A613C
:104700007B6800225A617B6800229A627B6893F87A
:104710005130DBB2002B06D17B68002283F8502099
:10472000786809F097FF7B68022283F851207B6844
:104730001B681A687B681B6822F040021A607B685D
:104740005B6803F482727B689B6803F404431A433A
:104750007B68DB6803F400631A437B681B6903F022
:1047600002031A437B685B6903F001031A437B6809
:104770009B6903F400731A437B68DB6903F0380319
:104780001A437B681B6A03F0800342EA03017B68DB
:104790009B6A03F400527B681B680A431A607B68BB
:1047A0009B691B0C03F004017B685B6A03F0100239
:1047B0007B681B680A435A607B681B68DA697B6800
:1047C0001B6822F40062DA617B6800225A657B680C
:1047D000012283F85120002318460837BD4680BDCA
:1047E00080B582B000AF78607B68002B01D10123D7
:1047F0001AE07B68022283F851207B681B681A68E4
:104800007B681B6822F040021A60786809F06AFF32
:104810007B6800225A657B68002283F851207B6800
:10482000002283F85020002318460837BD4680BD7B
:1048300080B483B000AF786000BF0C37BD465DF830
:10484000047B704780B483B000AF786000BF0C3742
:10485000BD465DF8047B704780B588B000AFF86056
:10486000B9603B601346FB800023FB77FB6893F83D
:104870005030012B01D1022326E1FB68012283F88D
:104880005020FEF7CBFFB861FB88FB82FB6893F8F2
:104890005130DBB2012B02D00223FB770BE1BB6866
:1048A000002B02D0FB88002B02D10123FB7702E111
:1048B000FB68032283F85120FB6800225A65FB68DD
:1048C000BA681A63FB68FA889A86FB68FA88DA86FF
:1048D000FB6800229A63FB6800229A87FB6800222B
:1048E000DA87FB6800225A64FB6800221A64FB68BE
:1048F0009B68B3F5004F0FD1FB681B681A68FB6813
:104900001B6822F040021A60FB681B681A68FB688B
:104910001B6842F480421A60FB681B681B6803F046
:104920004003402B07D0FB681B681A68FB681B68B4
:1049300042F040021A60FB68DB68B3F5006F4BD1B0
:10494000FB685B68002B02D0FB8A012B3ED1FB6821
:104950001B6B1A88FB681B68DA60FB681B6B9A1C70
:10496000FB681A63FB68DB8E9BB2013B9AB2FB6863
:10497000DA862BE0FB681B689B6803F00203022BBE
:1049800012D1FB681B6B1A88FB681B68DA60FB6836
:104990001B6B9A1CFB681A63FB68DB8E9BB2013BA6
:1049A0009AB2FB68DA8611E0FEF738FF0246BB696F
:1049B000D31A3A689A4203D83B68B3F1FF3F02D159
:1049C0003B68002B02D10323FB7774E0FB68DB8E8E
:1049D0009BB2002BCED14CE0FB685B68002B02D071
:1049E000FB8A012B40D1FB681A6BFB681B680C33F8
:1049F00012781A70FB681B6B5A1CFB681A63FB6801
:104A0000DB8E9BB2013B9AB2FB68DA862CE0FB6836
:104A10001B689B6803F00203022B13D1FB681A6B1F
:104A2000FB681B680C3312781A70FB681B6B5A1CEE
:104A3000FB681A63FB68DB8E9BB2013B9AB2FB6892
:104A4000DA8611E0FEF7EAFE0246BB69D31A3A683D
:104A50009A4203D83B68B3F1FF3F02D13B68002B79
:104A600002D10323FB7726E0FB68DB8E9BB2002B91
:104A7000CDD1BA693968F86801F036FF0346002BDA
:104A800002D0FB6820225A65FB689B68002B0AD184
:104A900000233B61FB681B68DB683B61FB681B68AC
:104AA0009B683B613B69FB685B6D002B02D0012377
:104AB000FB7700E000BFFB68012283F85120FB6810
:104AC000002283F85020FB7F18462037BD4680BD6A
:104AD00080B588B002AFF860B9603B601346FB80D8
:104AE0000023FB75FB685B68B3F5827F12D1FB681E
:104AF0009B68002B0ED1FB68042283F85120FA88B2
:104B00003B6800931346BA68B968F86800F0F1F89A
:104B10000346EAE0FB6893F85030012B01D10223F1
:104B2000E3E0FB68012283F85020FEF777FE38614E
:104B3000FB6893F85130DBB2012B02D00223FB75E6
:104B4000CAE0BB68002B02D0FB88002B02D10123F6
:104B5000FB75C1E0FB68042283F85120FB6800224A
:104B60005A65FB68BA689A63FB68FA889A87FB689B
:104B7000FA88DA87FB6800221A63FB6800229A86AB
:104B8000FB680022DA86FB6800221A64FB680022B8
:104B90005A64FB689B68B3F5004F0FD1FB681B6834
:104BA0001A68FB681B6822F040021A60FB681B68E9
:104BB0001A68FB681B6822F480421A60FB681B6855
:104BC0001B6803F04003402B07D0FB681B681A6882
:104BD000FB681B6842F040021A60FB68DB68002B30
:104BE00062D12EE0FB681B689B6803F00103012B78
:104BF00015D1FB681B6803F10C02FB689B6B1278F4
:104C0000D2B21A70FB689B6B5A1CFB689A63FB68F4
:104C1000DB8F9BB2013B9AB2FB68DA8711E0FEF7AB
:104C2000FDFD02463B69D31A3A689A4203D83B68B5
:104C3000B3F1FF3F02D13B68002B02D10323FB7588
:104C40004AE0FB68DB8F9BB2002BCBD131E0FB68E5
:104C50001B689B6803F00103012B13D1FB681B68E1
:104C6000DA68FB689B6B92B21A80FB689B6B9A1C9C
:104C7000FB689A63FB68DB8F9BB2013B9AB2FB68CF
:104C8000DA8711E0FEF7CAFD02463B69D31A3A689B
:104C90009A4203D83B68B3F1FF3F02D13B68002B37
:104CA00002D10323FB7517E0FB68DB8F9BB2002B5F
:104CB000CDD13A693968F86801F0B0FD0346002BA0
:104CC00002D0FB6820225A65FB685B6D002B02D086
:104CD0000123FB7500E000BFFB68012283F851202F
:104CE000FB68002283F85020FB7D18461837BD462C
:104CF00080BD80B58CB000AFF860B9607A607B8011
:104D00000123FB62002387F82B30FB6893F85030B7
:104D1000012B01D102238AE1FB68012283F8502094
:104D2000FEF77CFD7862FB6893F8513087F82330FA
:104D3000FB685B68FB617B887B8397F82330012BE2
:104D40000FD0FB69B3F5827F07D1FB689B68002B0E
:104D500003D197F82330042B03D0022387F82B309C
:104D60005BE1BB68002B05D07B68002B02D07B8801
:104D7000002B03D1012387F82B304EE1FB6893F819
:104D80005130DBB2042B03D0FB68052283F851209D
:104D9000FB6800225A65FB687A689A63FB687A8828
:104DA000DA87FB687A889A87FB68BA681A63FB68B7
:104DB0007A88DA86FB687A889A86FB6800221A6409
:104DC000FB6800225A64FB681B681B6803F0400301
:104DD000402B07D0FB681B681A68FB681B6842F011
:104DE00040021A60FB68DB68B3F5006F78D1FB689E
:104DF0005B68002B02D07B8B012B66D1FB681B6BA1
:104E00001A88FB681B68DA60FB681B6B9A1CFB68DE
:104E10001A63FB68DB8E9BB2013B9AB2FB68DA86B1
:104E200053E0FB681B689B6803F00203022B1BD155
:104E3000FB68DB8E9BB2002B16D0FB6A012B13D1D3
:104E4000FB681B6B1A88FB681B68DA60FB681B6BCE
:104E50009A1CFB681A63FB68DB8E9BB2013B9AB21B
:104E6000FB68DA860023FB62FB681B689B6803F023
:104E70000103012B19D1FB68DB8F9BB2002B14D0EF
:104E8000FB681B68DA68FB689B6B92B21A80FB6850
:104E90009B6B9A1CFB689A63FB68DB8F9BB2013BA0
:104EA0009AB2FB68DA870123FB62FEF7B7FC024681
:104EB0007B6AD31ABA6B9A4207D8BB6BB3F1FF3F38
:104EC00003D0032387F82B30A7E0FB68DB8E9BB26F
:104ED000002BA6D1FB68DB8F9BB2002BA1D17CE01D
:104EE000FB685B68002B02D07B8B012B6BD1FB68CE
:104EF0001A6BFB681B680C3312781A70FB681B6B0B
:104F00005A1CFB681A63FB68DB8E9BB2013B9AB2AA
:104F1000FB68DA8657E0FB681B689B6803F00203B6
:104F2000022B1CD1FB68DB8E9BB2002B17D0FB6AD7
:104F3000012B14D1FB681A6BFB681B680C331278C9
:104F40001A70FB681B6B5A1CFB681A63FB68DB8ECC
:104F50009BB2013B9AB2FB68DA860023FB62FB68D6
:104F60001B689B6803F00103012B19D1FB68DB8FE1
:104F70009BB2002B14D0FB681B68DA68FB689B6B44
:104F8000D2B21A70FB689B6B5A1CFB689A63FB6871
:104F9000DB8F9BB2013B9AB2FB68DA870123FB628D
:104FA000FEF73CFC02467B6AD31ABA6B9A4203D8DE
:104FB000BB6BB3F1FF3F02D1BB6B002B03D10323CB
:104FC00087F82B3029E0FB68DB8E9BB2002BA2D147
:104FD000FB68DB8F9BB2002B9DD17A6AB96BF868B6
:104FE00001F082FC0346002B06D0012387F82B300A
:104FF000FB6820225A6510E0FB689B68002B0BD1F0
:1050000000237B61FB681B68DB687B61FB681B68B6
:105010009B687B617B6900E000BFFB68012283F82D
:105020005120FB68002283F8502097F82B30184657
:105030003037BD4680BD000080B487B000AFF86057
:10504000B9601346FB800023FB75FB6893F8503072
:10505000012B01D102236FE0FB68012283F850206D
:10506000BB68002B02D0FB88002B02D10123FB750B
:105070005DE0FB6893F85130DBB2012B02D00223D4
:10508000FB7554E0FB68032283F85120FB68002283
:105090005A65FB68BA681A63FB68FA889A86FB68E7
:1050A000FA88DA86FB6800229A63FB6800229A87F6
:1050B000FB680022DA87FB6800221A64FB68DB6861
:1050C000002B03D0FB681F4A5A6402E0FB681E4AAB
:1050D0005A64FB689B68B3F5004F0FD1FB681B68EF
:1050E0001A68FB681B6822F040021A60FB681B68A4
:1050F0001A68FB681B6842F480421A60FB681B68F0
:105100005A68FB681B6842F0A0025A60FB681B6883
:105110001B6803F04003402B08D0FB681B681A682B
:10512000FB681B6842F040021A6000E000BFFB68A9
:10513000002283F85020FB7D18461C37BD465DF8E1
:10514000047B7047C96600088366000880B586B096
:1051500000AFF860B9601346FB800023FB75FB6865
:105160009B68002B10D1FB685B68B3F5827F0BD185
:10517000FB68042283F85120FB88BA68B968F86894
:1051800000F082F8034676E0FB6893F85030012B7C
:1051900001D102236FE0FB68012283F85020FB68F5
:1051A00093F85130DBB2012B02D00223FB755DE096
:1051B000BB68002B02D0FB88002B02D10123FB75BA
:1051C00054E0FB68042283F85120FB6800225A65F2
:1051D000FB68BA689A63FB68FA889A87FB68FA8862
:1051E000DA87FB6800221A63FB6800229A86FB6854
:1051F0000022DA86FB6800225A64FB68DB68002B19
:1052000003D0FB681E4A1A6402E0FB681D4A1A6458
:10521000FB689B68B3F5004F0FD1FB681B681A68E9
:10522000FB681B6822F040021A60FB681B681A6862
:10523000FB681B6822F480421A60FB681B685A688E
:10524000FB681B6842F060025A60FB681B681B68C1
:1052500003F04003402B08D0FB681B681A68FB680A
:105260001B6842F040021A6000E000BFFB680022A9
:1052700083F85020FB7D18461837BD4680BD00BF1F
:105280003D660008F365000880B487B000AFF860A1
:10529000B9607A607B800023FB75FB6893F850301F
:1052A000012B01D1022375E0FB68012283F8502015
:1052B000FB6893F85130BB75FB685B683B61BB7D55
:1052C000012B0DD03B69B3F5827F06D1FB689B684B
:1052D000002B02D1BB7D042B02D00223FB7554E0CE
:1052E000BB68002B05D07B68002B02D07B88002B8D
:1052F00002D10123FB7548E0FB6893F85130DBB223
:10530000042B03D0FB68052283F85120FB680022A0
:105310005A65FB68BA681A63FB687A889A86FB68E4
:105320007A88DA86FB687A689A63FB687A889A8753
:10533000FB687A88DA87FB68DB68002B06D0FB689D
:10534000174A1A64FB68174A5A6405E0FB68164A54
:105350001A64FB68154A5A64FB681B685A68FB6844
:105360001B6842F0E0025A60FB681B681B6803F090
:105370004003402B08D0FB681B681A68FB681B6859
:1053800042F040021A6000E000BFFB68002283F890
:105390005020FB7D18461C37BD465DF8047B7047E6
:1053A000356500089565000871640008D56400083B
:1053B00080B586B000AFF860B9601346FB8000236B
:1053C000FB75FB6893F85030012B01D102239BE061
:1053D000FB68012283F85020FB6893F85130DBB260
:1053E000012B02D00223FB7589E0BB68002B02D0A1
:1053F000FB88002B02D10123FB7580E0FB680322B0
:1054000083F85120FB6800225A65FB68BA681A636A
:10541000FB68FA889A86FB68FA88DA86FB680022BD
:105420009A63FB6800225A64FB6800221A64FB68D6
:1054300000229A87FB680022DA87FB689B68B3F535
:10544000004F0FD1FB681B681A68FB681B6822F0CD
:1054500040021A60FB681B681A68FB681B6842F40C
:1054600080421A60FB689B6C294A1A64FB689B6C3B
:10547000284ADA63FB689B6C274ADA64FB689B6CFA
:1054800000221A65FB68986CFB681B6B1946FB6869
:105490001B680C331A46FB68DB8E9BB204F0A3FC3E
:1054A0000346002B0CD0FB685B6D43F01002FB68D9
:1054B0005A650123FB75FB68012283F851201EE029
:1054C000FB681B681B6803F04003402B07D0FB6898
:1054D0001B681A68FB681B6842F040021A60FB6890
:1054E0001B685A68FB681B6842F020025A60FB6820
:1054F0001B685A68FB681B6842F002025A60FB682E
:10550000002283F85020FB7D18461837BD4680BD29
:1055100021620008416000087562000880B586B00D
:1055200000AFF860B9601346FB800023FB75FB6891
:105530009B68002B10D1FB685B68B3F5827F0BD1B1
:10554000FB68042283F85120FB88BA68B968F868C0
:1055500000F0ACF803469FE0FB6893F85030012B55
:1055600001D1022398E0FB68012283F85020FB68F8
:1055700093F85130DBB2012B02D00223FB7586E099
:10558000BB68002B02D0FB88002B02D10123FB75E6
:105590007DE0FB68042283F85120FB6800225A65F5
:1055A000FB68BA689A63FB68FA889A87FB68FA888E
:1055B000DA87FB6800221A64FB6800225A64FB68E1
:1055C00000229A86FB680022DA86FB689B68B3F5A6
:1055D000004F0FD1FB681B681A68FB681B6822F03C
:1055E00040021A60FB681B681A68FB681B6822F49B
:1055F00080421A60FB68DB6C294A1A64FB68DB6C2A
:10560000284ADA63FB68DB6C274ADA64FB68DB6CE8
:1056100000221A65FB68D86CFB681B680C331946BE
:10562000FB689B6B1A46FB68DB8F9BB204F0DBFBCD
:105630000346002B0CD0FB685B6D43F01002FB6847
:105640005A650123FB75FB68012283F851201EE097
:10565000FB681B681B6803F04003402B07D0FB6806
:105660001B681A68FB681B6842F040021A60FB68FE
:105670001B685A68FB681B6842F020025A60FB688E
:105680001B685A68FB681B6842F001025A60FB689D
:10569000002283F85020FB7D18461837BD4680BD98
:1056A0003D620008E96000087562000880B586B0B8
:1056B00000AFF860B9607A607B800023FB75FB68FF
:1056C00093F85030012B01D10223E3E0FB68012263
:1056D00083F85020FB6893F85130BB75FB685B681A
:1056E0003B61BB7D012B0DD03B69B3F5827F06D1B9
:1056F000FB689B68002B02D1BB7D042B02D00223E8
:10570000FB75C2E0BB68002B05D07B68002B02D084
:105710007B88002B02D10123FB75B6E0FB6893F870
:105720005130DBB2042B03D0FB68052283F85120F3
:10573000FB6800225A65FB68BA681A63FB687A88BE
:105740009A86FB687A88DA86FB687A689A63FB68CF
:105750007A889A87FB687A88DA87FB6800221A645D
:10576000FB6800225A64FB6893F85130DBB2042BCB
:1057700008D1FB68DB6C494A1A64FB68DB6C484A59
:10578000DA6307E0FB68DB6C464A1A64FB68DB6C93
:10579000454ADA63FB68DB6C444ADA64FB68DB6C1D
:1057A00000221A65FB68D86CFB681B680C3319462D
:1057B000FB689B6B1A46FB68DB8F9BB204F013FB04
:1057C0000346002B0CD0FB685B6D43F01002FB68B6
:1057D0005A650123FB75FB68012283F8512054E0D0
:1057E000FB681B685A68FB681B6842F001025A603C
:1057F000FB689B6C00221A64FB689B6C0022DA63D6
:10580000FB689B6C0022DA64FB689B6C00221A65C3
:10581000FB68986CFB681B6B1946FB681B680C33B4
:105820001A46FB68DB8E9BB204F0DDFA0346002BC0
:105830000CD0FB685B6D43F01002FB685A650123D6
:10584000FB75FB68012283F851201EE0FB681B6892
:105850001B6803F04003402B07D0FB681B681A68E5
:10586000FB681B6842F040021A60FB681B685A68BC
:10587000FB681B6842F020025A60FB681B685A688C
:10588000FB681B6842F002025A60FB68002283F842
:105890005020FB7D18461837BD4680BD3D6200088C
:1058A000E96000085962000891610008756200080B
:1058B00080B588B000AF78600023FB776E4B1B6823
:1058C0006E4AA2FB03235B0A642202FB03F37B61A3
:1058D0007B69BB617B681B685A687B681B6822F028
:1058E00020025A607B681B685B6803F08003802B92
:1058F00017D17B68624A5A64BB69002B06D17B686A
:105900005B6D43F040027B685A6508E0BB69013B70
:10591000BB617B6893F85130DBB2072BECD17B691C
:10592000BB617B681B685B6803F04003402B17D1A9
:105930007B68544A1A64BB69002B06D17B685B6D97
:1059400043F040027B685A6508E0BB69013BBB61DC
:105950007B6893F85130DBB2072BECD17B69BB61DC
:105960007B681B685B6803F00203022B2ED17B6807
:105970009B6C002B2AD07B689B6C00221A657B688D
:105980009B6C184604F087FA0346002B02D07B6814
:1059900040225A657B681B685A687B681B6822F046
:1059A00002025A60BB69002B06D17B685B6D43F035
:1059B00040027B685A6509E0BB69013BBB617B68BB
:1059C0001B689B6803F00203002BEBD07B681B680D
:1059D0005B6803F00103012B22D17B68DB6C002B99
:1059E0001ED07B68DB6C00221A657B68DB6C184676
:1059F00004F051FA0346002B02D07B6840225A651E
:105A00007B681B681A687B681B6822F040021A607A
:105A10007B681B685A687B681B6822F001025A6029
:105A20007B680022DA877B680022DA867B685B6D00
:105A3000402B02D10123FB7702E07B6800225A65EC
:105A400000233B617B681B68DB683B617B681B68EC
:105A50009B683B613B690023FB607B681B689B681C
:105A6000FB60FB687B68012283F85120FB7F1846AE
:105A70002037BD4680BD00BF3C000020F1197605EF
:105A8000296C0008996B000880B588B000AF786079
:105A90000023FB770123BB61724B1B68724AA2FB98
:105AA00003235B0A642202FB03F33B613B697B61D6
:105AB0007B681B685A687B681B6822F020025A606A
:105AC0007B681B685B6803F08003802B17D17B68C1
:105AD000664A5A647B69002B06D17B685B6D43F094
