:020000040800F2
:100000000000022095700108596C01085F6C01081E
:10001000656C01086B6C0108716C01080000000040
:10002000000000000000000000000000776C0108E4
:10003000856C010800000000936C0108A16C0108A8
:10004000E5700108E5700108E5700108E570010838
:10005000E5700108E5700108E5700108E570010828
:10006000E5700108E5700108E5700108E570010818
:10007000E5700108E5700108E5700108E570010808
:10008000E5700108E5700108E5700108E5700108F8
:10009000E5700108E5700108E5700108E5700108E8
:1000A000E5700108E5700108E5700108E5700108D8
:1000B000E5700108E5700108E5700108E5700108C8
:1000C000E5700108E5700108E5700108E5700108B8
:1000D000E5700108E5700108E5700108E5700108A8
:1000E000E5700108E5700108E5700108E570010898
:1000F000E5700108E5700108E5700108E570010888
:10010000E5700108E5700108E5700108E570010877
:10011000E5700108E5700108E5700108E570010867
:10012000E5700108E5700108E5700108E570010857
:10013000E57001080000000000000000E570010803
:10014000E5700108E5700108E5700108E570010837
:10015000E5700108E5700108E5700108E570010827
:10016000E5700108E5700108E5700108E570010817
:10017000E5700108E5700108E57001080000000065
:1001800000000000E5700108000000000000000011
:10019000E57001080000000000000000E5700108A3
:1001A000000000000000000000000000E5700108F1
:1001B000E5700108E5700108E5700108E5700108C7
:0401C000E5700108DD
:1001D000A3F5803A704700BF174B002B08BF134BA5
:1001E0009D46FFF7F5FF00218B460F461348144A42
:1001F000121A17F0F6F90E4B002B00D098470D4B52
:10020000002B00D098470020002104000D000D486D
:10021000002802D00C48AFF3008017F097FA2000B6
:10022000290000F04FF916F05FFF00BF0000080042
:10023000000000000000000000000000A0000020FE
:10024000040400200000000000000000588B01089A
:10025000000000209C000020A000002004040020DA
:10026000034613F8012B002AFBD1181A01387047F6
:1002700001F0FF01102A2BDB10F0070F08D010F857
:10028000013B013A8B422DD010F0070F42B3F6D15B
:10029000F0B441EA012141EA014122F007047FF074
:1002A00000070023F0E80256083C85EA010586EACB
:1002B000010685FA47F5A3FA87F586FA47F6A5FA07
:1002C00087F68EB9EED1F0BC01F0FF0102F0070213
:1002D00032B110F8013B013A83EA010313B1F8D1BE
:1002E0000020704701387047002D06BF354603389F
:1002F000073815F0010F07D1013015F4807F02BFD8
:10030000013015F4C03F0130F0BC0138704700BF28
:1003100053B94AB9002908BF00281CBF4FF0FF316C
:100320004FF0FF3000F00CB8ADF1080C6DE904CED1
:1003300017F010FFDDF804E0DDE9022304B0704798
:10034000704700BF0348044B834202D0034B03B104
:10035000184770479C0000209C000020000000000F
:100360000548064B1B1AD90F01EBA301491002D017
:10037000034B03B1184770479C0000209C000020ED
:100380000000000010B5064C237843B9FFF7DAFFF0
:10039000044B13B10448AFF300800123237010BD58
:1003A000A0000020000000001C84010808B5054BD7
:1003B0001BB105490548AFF30080BDE80840FFF7D1
:1003C000CFBF00BF00000000A40000201C84010873
:1003D00080B584B000AF78607B68002B01D100232A
:1003E0001CE07B681B68B3F1FF3F08D07B685B684B
:1003F000002B04D07B689B68B3F1FF3F01D1002341
:100400000CE0082016F082FE0346FB60FB68002B20
:1004100003D07968F86800F005F8FB6818461037D3
:10042000BD4680BD80B483B000AF786039603B6862
:10043000002B06D07B683A685A603B681A687B6874
:100440001A6000BF0C37BD465DF8047B704780B56D
:1004500082B000AF7860786816F060FE00BF0837A1
:10046000BD4680BD80B584B000AF78607B685B68B6
:10047000FB601CE07B681A68FB681B689A4213D11A
:10048000FB685B68786898470346002B0CD0FB68D4
:100490009A687B681A60FB68DB68002B0CD0FB68ED
:1004A000DB687868984707E0FB681033FB60FB68FF
:1004B0001B68002BDEDA00E000BF00BF1037BD462E
:1004C00080BD0000F0B597B016AF0BF0C7FA00F092
:1004D00071F800F0DFF900F0DBF800F0B1F900F09E
:1004E0000DF92D4C6846231D5422194617F05EF96C
:1004F00023684FF400724FF48071284814F050FFC5
:10050000274E6D4606F110040FCC0FC50FCC0FC55A
:100510000FCC0FC523682B6096E80F0016F0ACF9DE
:1005200015F0B4FC012015F013FA342015F04BF946
:10053000202015F05DF91B4BD3E90023012015F0B5
:10054000D9F815F0AFF915F07FF915F009F8002189
:10055000154801F0D7FB15F081F80346002B16D0A3
:100560002021124815F082F820221149012015F0AF
:10057000D0FB0E4B0D2283F820200C4B0A2283F86F
:1005800021200A2322220949054808F0DEFC4FF405
:100590007A700BF04FFBDEE7BC0000200004024045
:1005A0005C0100200800002014010020A0010020B0
:1005B0001000002080B594B000AF07F11C03342276
:1005C0000021184617F00DF807F1080300221A6001
:1005D0005A609A60DA601A6100237B602A4B1B6CB8
:1005E000294A43F080531364274B1B6C03F080535C
:1005F0007B607B6800233B60244B1B6823F44043F3
:10060000224A43F480431360204B1B6803F44043A9
:100610003B603B680223FB610123BB621023FB624A
:1006200002237B630023BB631023FB634FF4A87397
:100630003B6404237B640223BB640223FB6407F155
:100640001C0318460FF030FF0346002B01D000F0CA
:1006500083F90F23BB600223FB6000233B614FF44F
:1006600080537B610023BB6107F108030221184618
:100670000BF06CFE0346002B01D000F06DF900BFBB
:100680005037BD4680BD00BF0038024000700040BA
:1006900080B500AF174B184A1A60164B4FF48272A0
:1006A0005A60144B00229A60124B0022DA60114B00
:1006B00000221A610F4B00225A610E4B4FF4007258
:1006C0009A610C4B2022DA610A4B00221A62094B14
:1006D00000225A62074B00229A62064B0A22DA6213
:1006E00004480CF0B4F90346002B01D000F034F9B3
:1006F00000BF80BDBC0000200030014080B596B036
:1007000000AF07F1480300221A605A609A60DA606D
:1007100007F1400300221A605A6007F12403002207
:100720001A605A609A60DA601A615A619A613B1DD8
:1007300020220021184616F054FF3F4B3F4A1A6012
:100740003D4B54225A603C4B00229A603A4B44F68F
:100750002062DA60384B00221A61374B00225A615E
:10076000354B00229A61344800F0FBF80346002B19
:1007700001D000F0F1F84FF48053BB6407F1480357
:1007800019462D4804F014FF0346002B01D000F059
:10079000E3F8294801F0FEF90346002B01D000F0F0
:1007A000DBF800233B6400237B6407F14003194618
:1007B000214807F0F9FF0346002B01D000F0CCF8E8
:1007C00060237B6242F21073BB620023FB62002352
:1007D0003B6300237B630023BB630023FB6307F1C0
:1007E000240300221946144804F08AF80346002B1B
:1007F00001D000F0B1F800237B600023BB60002330
:10080000FB6000233B6100237B614FF40053BB611D
:1008100000233B623B1D1946074808F041F8034698
:10082000002B01D000F098F8034816F05BF900BFE8
:100830005837BD4680BD00BF1401002000000140B4
:1008400080B500AF114B124A1A60104B4FF4E132E1
:100850005A600E4B00229A600C4B0022DA600B4B60
:1008600000221A61094B0C225A61084B00229A613E
:10087000064B0022DA61054808F0ACF90346002B6C
:1008800001D000F069F800BF80BD00BF5C0100200E
:100890000044004080B588B000AF07F10C0300228F
:1008A0001A605A609A60DA601A610023BB60274BB5
:1008B0001B6B264A43F004031363244B1B6B03F0AA
:1008C0000403BB60BB6800237B60204B1B6B1F4A8B
:1008D00043F0010313631D4B1B6B03F001037B60AB
:1008E0007B6800233B60194B1B6B184A43F00203E3
:1008F0001363164B1B6B03F002033B603B68002243
:100900004FF44071124811F067FA4FF40053FB6046
:1009100000233B6100237B6107F10C0319460D485E
:1009200010F0BAFF4FF44073FB6001233B610023DA
:100930007B610023BB6107F10C031946044810F0EA
:10094000ABFF00BF2037BD4680BD00BF003802406E
:10095000000402400008024080B400AF72B600BF3D
:10096000FEE780B582B000AF78607B68002B01D1D4
:10097000012341E07B6893F83D30DBB2002B06D1C8
:100980007B68002283F83C20786816F089F87B6841
:10099000022283F83D207B681A687B68043319467D
:1009A000104605F05FFA7B68012283F846207B68D9
:1009B000012283F83E207B68012283F83F207B6878
:1009C000012283F840207B68012283F841207B6864
:1009D000012283F842207B68012283F843207B6850
:1009E000012283F844207B68012283F845207B683C
:1009F000012283F83D20002318460837BD4680BDFC
:100A000080B582B000AF78607B68022283F83D2019
:100A10007B681B681A6A41F211131340002B0FD137
:100A20007B681B681A6A40F244431340002B07D1CD
:100A30007B681B681A687B681B6822F001021A60D9
:100A4000786816F089F87B68002283F846207B6876
:100A5000002283F83E207B68002283F83F207B68D9
:100A6000002283F840207B68002283F841207B68C5
:100A7000002283F842207B68002283F843207B68B1
:100A8000002283F844207B68002283F845207B689D
:100A9000002283F83D207B68002283F83C2000235D
:100AA00018460837BD4680BD80B483B000AF78607B
:100AB00000BF0C37BD465DF8047B704780B483B03F
:100AC00000AF786000BF0C37BD465DF8047B70470F
:100AD00080B485B000AF78607B6893F83D30DBB2BE
:100AE000012B01D0012346E07B68022283F83D20E0
:100AF0007B681B68234A934222D07B681B68B3F152
:100B0000804F1DD07B681B681F4A934218D07B68BA
:100B10001B681E4A934213D07B681B681C4A934291
:100B20000ED07B681B681B4A934209D07B681B6808
:100B3000194A934204D07B681B68184A934211D12A
:100B40007B681B689B6803F00703FB60FB68062B50
:100B500010D07B681B681A687B681B6842F0010232
:100B60001A6007E07B681B681A687B681B6842F0A4
:100B700001021A60002318461437BD465DF8047B55
:100B8000704700BF00000140000400400008004022
:100B9000000C0040000401400040014000180040EB
:100BA00080B483B000AF78607B681B681A6A41F23A
:100BB00011131340002B0FD17B681B681A6A40F297
:100BC00044431340002B07D17B681B681A687B687D
:100BD0001B6822F001021A607B68012283F83D2025
:100BE000002318460C37BD465DF8047B70470000B3
:100BF00080B485B000AF78607B6893F83D30DBB29D
:100C0000012B01D001234EE07B68022283F83D20B6
:100C10007B681B68DA687B681B6842F00102DA6057
:100C20007B681B68234A934222D07B681B68B3F120
:100C3000804F1DD07B681B681F4A934218D07B6889
:100C40001B681E4A934213D07B681B681C4A934260
:100C50000ED07B681B681B4A934209D07B681B68D7
:100C6000194A934204D07B681B68184A934211D1F9
:100C70007B681B689B6803F00703FB60FB68062B1F
:100C800010D07B681B681A687B681B6842F0010201
:100C90001A6007E07B681B681A687B681B6842F073
:100CA00001021A60002318461437BD465DF8047B24
:100CB000704700BF000001400004004000080040F1
:100CC000000C0040000401400040014000180040BA
:100CD00080B483B000AF78607B681B68DA687B689B
:100CE0001B6822F00102DA607B681B681A6A41F215
:100CF00011131340002B0FD17B681B681A6A40F256
:100D000044431340002B07D17B681B681A687B683B
:100D10001B6822F001021A607B68012283F83D20E3
:100D2000002318460C37BD465DF8047B7047000071
:100D300080B586B000AFF860B9601346FB80FB68F1
:100D400093F83D30DBB2022B01D102237AE0FB683D
:100D500093F83D30DBB2012B25D1BB68002B04D1C9
:100D6000FB88002B01D001236CE0FB68022283F892
:100D70003D20FB681B6A354ADA63FB681B6A344A0C
:100D80001A64FB681B6A334ADA64FB68186AB9683C
:100D9000FB681B682C331A46FB8811F0E4F9034604
:100DA000002B04D001E001234CE001234AE0FB6862
:100DB0001B68DA68FB681B6842F48072DA60FB68C3
:100DC0001B68254A934222D0FB681B68B3F1804F11
:100DD0001DD0FB681B68214A934218D0FB681B6832
:100DE0001F4A934213D0FB681B681E4A93420ED0E1
:100DF000FB681B681C4A934209D0FB681B681B4AAE
:100E0000934204D0FB681B68194A934211D1FB68D6
:100E10001B689B6803F007037B617B69062B10D07E
:100E2000FB681B681A68FB681B6842F001021A60C5
:100E300007E0FB681B681A68FB681B6842F0010248
:100E40001A60002318461837BD4680BDD15D0008E2
:100E5000FF5D0008FF5A0008000001400004004048
:100E600000080040000C0040000401400040014028
:100E70000018004080B582B000AF78607B681B68C6
:100E8000DA687B681B6822F48072DA607B681B6A10
:100E9000184611F030FA7B681B681A6A41F2111388
:100EA0001340002B0FD17B681B681A6A40F2444341
:100EB0001340002B07D17B681B681A687B681B688E
:100EC00022F001021A607B68012283F83D20002392
:100ED00018460837BD4680BD80B582B000AF786047
:100EE0007B68002B01D1012341E07B6893F83D3002
:100EF000DBB2002B06D17B68002283F83C207868A7
:100F000000F08DF87B68022283F83D207B681A6828
:100F10007B6804331946104604F0A4FF7B68012265
:100F200083F846207B68012283F83E207B680122FB
:100F300083F83F207B68012283F840207B680122F0
:100F400083F841207B68012283F842207B680122DC
:100F500083F843207B68012283F844207B680122C8
:100F600083F845207B68012283F83D200023184642
:100F70000837BD4680BD80B582B000AF78607B6821
:100F8000022283F83D207B681B681A6A41F2111324
:100F90001340002B0FD17B681B681A6A40F2444350
:100FA0001340002B07D17B681B681A687B681B689D
:100FB00022F001021A60786800F03BF87B6800229A
:100FC00083F846207B68002283F83E207B6800225D
:100FD00083F83F207B68002283F840207B68002252
:100FE00083F841207B68002283F842207B6800223E
:100FF00083F843207B68002283F844207B6800222A
:1010000083F845207B68002283F83D207B6800221E
:1010100083F83C20002318460837BD4680BD80B4C5
:1010200083B000AF786000BF0C37BD465DF8047B2D
:10103000704780B483B000AF786000BF0C37BD4606
:101040005DF8047B7047000080B584B000AF786025
:1010500039603B68002B09D17B6893F83E30DBB2E6
:10106000012B14BF01230023DBB222E03B68042BD9
:1010700009D17B6893F83F30DBB2012B14BF012309
:101080000023DBB215E03B68082B09D17B6893F89D
:101090004030DBB2012B14BF01230023DBB208E098
:1010A0007B6893F84130DBB2012B14BF012300238E
:1010B000DBB2002B01D001237CE03B68002B04D184
:1010C0007B68022283F83E2013E03B68042B04D1A6
:1010D0007B68022283F83F200BE03B68082B04D199
:1010E0007B68022283F8402003E07B68022283F8B9
:1010F00041207B681B6801223968184605F058FBBF
:101100007B681B682D4A934204D07B681B682C4A7D
:10111000934201D1012300E00023002B07D07B681C
:101120001B685A6C7B681B6842F400425A647B68F7
:101130001B68224A934222D07B681B68B3F1804F20
:101140001DD07B681B681F4A934218D07B681B68C0
:101150001D4A934213D07B681B681C4A93420ED0F1
:101160007B681B68164A934209D07B681B68184A43
:10117000934204D07B681B68164A934211D17B6866
:101180001B689B6803F00703FB60FB68062B10D00D
:101190007B681B681A687B681B6842F001021A6052
:1011A00007E07B681B681A687B681B6842F00102D5
:1011B0001A60002318461037BD4680BD000001406C
:1011C000000401400004004000080040000C004002
:1011D000004001400018004080B582B000AF786048
:1011E00039607B681B6800223968184605F0E0FA10
:1011F0007B681B682E4A934204D07B681B682D4A8B
:10120000934201D1012300E00023002B17D07B681B
:101210001B681A6A41F211131340002B0FD17B682F
:101220001B681A6A40F244431340002B07D17B68C5
:101230001B685A6C7B681B6822F400425A647B6806
:101240001B681A6A41F211131340002B0FD17B68FF
:101250001B681A6A40F244431340002B07D17B6895
:101260001B681A687B681B6822F001021A603B68E1
:10127000002B04D17B68012283F83E2013E03B68F9
:10128000042B04D17B68012283F83F200BE03B68EC
:10129000082B04D17B68012283F8402003E07B689F
:1012A000012283F84120002318460837BD4680BD3F
:1012B000000001400004014080B584B000AF7860B8
:1012C00039600023FB733B68002B09D17B6893F8DE
:1012D0003E30DBB2012B14BF01230023DBB222E03E
:1012E0003B68042B09D17B6893F83F30DBB2012BBC
:1012F00014BF01230023DBB215E03B68082B09D1A2
:101300007B6893F84030DBB2012B14BF012300232C
:10131000DBB208E07B6893F84130DBB2012B14BFED
:1013200001230023DBB2002B01D00123C7E03B687F
:10133000002B04D17B68022283F83E2013E03B6837
:10134000042B04D17B68022283F83F200BE03B682A
:10135000082B04D17B68022283F8402003E07B68DD
:10136000022283F841203B680C2B41D801A252F89D
:1013700023F000BFA9130008F1130008F1130008BF
:10138000F1130008BB130008F1130008F113000863
:10139000F1130008CD130008F1130008F113000841
:1013A000F1130008DF1300087B681B68DA687B68AC
:1013B0001B6842F00202DA601DE07B681B68DA6895
:1013C0007B681B6842F00402DA6014E07B681B68EB
:1013D000DA687B681B6842F00802DA600BE07B6821
:1013E0001B68DA687B681B6842F01002DA6002E072
:1013F0000123FB7300BFFB7B002B5FD17B681B6865
:1014000001223968184605F0D3F97B681B682E4A1B
:10141000934204D07B681B682C4A934201D101237C
:1014200000E00023002B07D07B681B685A6C7B68A8
:101430001B6842F400425A647B681B68224A93424C
:1014400022D07B681B68B3F1804F1DD07B681B687E
:101450001F4A934218D07B681B681E4A934213D0E0
:101460007B681B681C4A93420ED07B681B68174A36
:10147000934209D07B681B68184A934204D07B686A
:101480001B68174A934211D17B681B689B6803F065
:101490000703BB60BB68062B10D07B681B681A680B
:1014A0007B681B6842F001021A6007E07B681B68DA
:1014B0001A687B681B6842F001021A60FB7B1846C1
:1014C0001037BD4680BD00BF000001400004014050
:1014D0000004004000080040000C004000400140B3
:1014E0000018004080B584B000AF786039600023F8
:1014F000FB733B680C2B41D801A252F823F000BFCC
:10150000351500087D1500087D1500087D150008BB
:10151000471500087D1500087D1500087D15000899
:10152000591500087D1500087D1500087D15000877
:101530006B1500087B681B68DA687B681B6822F003
:101540000202DA601DE07B681B68DA687B681B6852
:1015500022F00402DA6014E07B681B68DA687B68BA
:101560001B6822F00802DA600BE07B681B68DA680F
:101570007B681B6822F01002DA6002E00123FB7333
:1015800000BFFB7B002B61D17B681B6800223968A0
:10159000184605F00DF97B681B682F4A934204D06A
:1015A0007B681B682D4A934201D1012300E0002390
:1015B000002B17D07B681B681A6A41F21113134085
:1015C000002B0FD17B681B681A6A40F2444313401A
:1015D000002B07D17B681B685A6C7B681B6822F460
:1015E00000425A647B681B681A6A41F21113134067
:1015F000002B0FD17B681B681A6A40F244431340EA
:10160000002B07D17B681B681A687B681B6822F077
:1016100001021A603B68002B04D17B68012283F829
:101620003E2013E03B68042B04D17B68012283F841
:101630003F200BE03B68082B04D17B68012283F834
:10164000402003E07B68012283F84120FB7B1846A1
:101650001037BD4680BD00BF0000014000040140BE
:1016600080B586B000AFF860B9607A607B800023F7
:10167000FB75BB68002B09D1FB6893F83E30DBB2E9
:10168000022B0CBF01230023DBB222E0BB68042B3A
:1016900009D1FB6893F83F30DBB2022B0CBF01236A
:1016A0000023DBB215E0BB68082B09D1FB6893F877
:1016B0004030DBB2022B0CBF01230023DBB208E079
:1016C000FB6893F84130DBB2022B0CBF01230023EF
:1016D000DBB2002B01D0022371E1BB68002B09D1E2
:1016E000FB6893F83E30DBB2012B0CBF01230023D3
:1016F000DBB222E0BB68042B09D1FB6893F83F30D2
:10170000DBB2012B0CBF01230023DBB215E0BB6869
:10171000082B09D1FB6893F84030DBB2012B0CBFDA
:1017200001230023DBB208E0FB6893F84130DBB211
:10173000012B0CBF01230023DBB2002B24D07B68DC
:10174000002B04D17B88002B01D0012337E1BB683B
:10175000002B04D1FB68022283F83E2016E0BB6810
:10176000042B04D1FB68022283F83F200EE0BB6803
:10177000082B04D1FB68022283F8402006E0FB68B6
:10178000022283F8412001E0012318E1BB680C2B01
:1017900000F2AE8001A252F823F000BFD11700087A
:1017A000F1180008F1180008F118000819180008CD
:1017B000F1180008F1180008F11800086118000875
:1017C000F1180008F1180008F1180008A91800081D
:1017D000FB685B6A7C4ADA63FB685B6A7B4A1A6473
:1017E000FB685B6A7A4ADA64FB68586A7968FB6866
:1017F0001B6834331A467B8810F0B5FC0346002B77
:1018000001D00123DBE0FB681B68DA68FB681B681A
:1018100042F40072DA606EE0FB689B6A6A4ADA633F
:10182000FB689B6A694A1A64FB689B6A684ADA64C7
:10183000FB68986A7968FB681B6838331A467B88AE
:1018400010F091FC0346002B01D00123B7E0FB68A8
:101850001B68DA68FB681B6842F48062DA604AE061
:10186000FB68DB6A584ADA63FB68DB6A574A1A642A
:10187000FB68DB6A564ADA64FB68D86A7968FB68F9
:101880001B683C331A467B8810F06DFC0346002B26
:1018900001D0012393E0FB681B68DA68FB681B68D2
:1018A00042F40062DA6026E0FB681B6B464ADA63AA
:1018B000FB681B6B454A1A64FB681B6B444ADA647D
:1018C000FB68186B7968FB681B6840331A467B8895
:1018D00010F049FC0346002B01D001236FE0FB68A8
:1018E0001B68DA68FB681B6842F48052DA6002E029
:1018F0000123FB7500BFFB7D002B5FD1FB681B68DC
:101900000122B968184604F053FFFB681B68314A8E
:10191000934204D0FB681B682F4A934201D10123F4
:1019200000E00023002B07D0FB681B685A6CFB68A3
:101930001B6842F400425A64FB681B68254A9342C4
:1019400022D0FB681B68B3F1804F1DD0FB681B6879
:10195000224A934218D0FB681B68214A934213D055
:10196000FB681B681F4A93420ED0FB681B681A4A2B
:10197000934209D0FB681B681B4A934204D0FB6862
:101980001B681A4A934211D1FB681B689B6803F0DD
:1019900007033B613B69062B10D0FB681B681A6884
:1019A000FB681B6842F001021A6007E0FB681B68D5
:1019B0001A68FB681B6842F001021A60FB7D18463A
:1019C0001837BD4680BD00BF915B0008395C000838
:1019D000FF5A0008000001400004014000040040DC
:1019E00000080040000C004000400140001800408A
:1019F00080B584B000AF786039600023FB733B682A
:101A00000C2B55D801A252F823F000BF411A000850
:101A1000B11A0008B11A0008B11A00085D1A0008CE
:101A2000B11A0008B11A0008B11A0008791A0008A2
:101A3000B11A0008B11A0008B11A0008951A000876
:101A40007B681B68DA687B681B6822F40072DA60C6
:101A50007B685B6A184610F04EFC2CE07B681B68C4
:101A6000DA687B681B6822F48062DA607B689B6AB4
:101A7000184610F040FC1EE07B681B68DA687B6843
:101A80001B6822F40062DA607B68DB6A184610F09B
:101A900032FC10E07B681B68DA687B681B6822F404
:101AA0008052DA607B681B6B184610F024FC02E061
:101AB0000123FB7300BFFB7B002B61D17B681B689C
:101AC00000223968184604F073FE7B681B682F4AB1
:101AD000934204D07B681B682D4A934201D10123B5
:101AE00000E00023002B17D07B681B681A6A41F2C4
:101AF00011131340002B0FD17B681B681A6A40F248
:101B000044431340002B07D17B681B685A6C7B68E9
:101B10001B6822F400425A647B681B681A6A41F20F
:101B200011131340002B0FD17B681B681A6A40F217
:101B300044431340002B07D17B681B681A687B68FD
:101B40001B6822F001021A603B68002B04D17B68FD
:101B5000012283F83E2013E03B68042B04D17B680C
:101B6000012283F83F200BE03B68082B04D17B68FF
:101B7000012283F8402003E07B68012283F84120A2
:101B8000FB7B18461037BD4680BD00BF00000140FA
:101B90000004014080B582B000AF78607B68002B04
:101BA00001D1012341E07B6893F83D30DBB2002B8B
:101BB00006D17B68002283F83C20786800F08DF81D
:101BC0007B68022283F83D207B681A687B680433B7
:101BD0001946104604F046F97B68012283F8462036
:101BE0007B68012283F83E207B68012283F83F2036
:101BF0007B68012283F840207B68012283F8412022
:101C00007B68012283F842207B68012283F843200D
:101C10007B68012283F844207B68012283F84520F9
:101C20007B68012283F83D20002318460837BD4613
:101C300080BD80B582B000AF78607B68022283F8F7
:101C40003D207B681B681A6A41F211131340002B78
:101C50000FD17B681B681A6A40F244431340002B83
:101C600007D17B681B681A687B681B6822F0010239
:101C70001A60786800F03BF87B68002283F8462001
:101C80007B68002283F83E207B68002283F83F2097
:101C90007B68002283F840207B68002283F8412083
:101CA0007B68002283F842207B68002283F843206F
:101CB0007B68002283F844207B68002283F845205B
:101CC0007B68002283F83D207B68002283F83C205B
:101CD000002318460837BD4680BD80B483B000AFEE
:101CE000786000BF0C37BD465DF8047B704780B458
:101CF00083B000AF786000BF0C37BD465DF8047B51
:101D00007047000080B584B000AF786039603B68F0
:101D1000002B09D17B6893F83E30DBB2012B14BF56
:101D200001230023DBB222E03B68042B09D17B684E
:101D300093F83F30DBB2012B14BF01230023DBB249
:101D400015E03B68082B09D17B6893F84030DBB283
:101D5000012B14BF01230023DBB208E07B6893F85A
:101D60004130DBB2012B14BF01230023DBB2002B77
:101D700001D001237CE03B68002B04D17B68022268
:101D800083F83E2013E03B68042B04D17B680222D9
:101D900083F83F200BE03B68082B04D17B680222CC
:101DA00083F8402003E07B68022283F841207B68AF
:101DB0001B6801223968184604F0FAFC7B681B682E
:101DC0002D4A934204D07B681B682C4A934201D170
:101DD000012300E00023002B07D07B681B685A6CAE
:101DE0007B681B6842F400425A647B681B68224A85
:101DF000934222D07B681B68B3F1804F1DD07B6873
:101E00001B681F4A934218D07B681B681D4A934287
:101E100013D07B681B681C4A93420ED07B681B68FA
:101E2000164A934209D07B681B68184A934204D033
:101E30007B681B68164A934211D17B681B689B68BC
:101E400003F00703FB60FB68062B10D07B681B6860
:101E50001A687B681B6842F001021A6007E07B6821
:101E60001B681A687B681B6842F001021A60002335
:101E700018461037BD4680BD0000014000040140F7
:101E80000004004000080040000C004000400140F9
:101E90000018004080B582B000AF786039607B6880
:101EA0001B6800223968184604F082FC7B681B68B6
:101EB0002E4A934204D07B681B682D4A934201D17D
:101EC000012300E00023002B17D07B681B681A6AEF
:101ED00041F211131340002B0FD17B681B681A6A63
:101EE00040F244431340002B07D17B681B685A6CB7
:101EF0007B681B6822F400425A647B681B681A6A7C
:101F000041F211131340002B0FD17B681B681A6A32
:101F100040F244431340002B07D17B681B681A68CA
:101F20007B681B6822F001021A603B68002B04D119
:101F30007B68012283F83E2013E03B68042B04D128
:101F40007B68012283F83F200BE03B68082B04D11B
:101F50007B68012283F8402003E07B68012283F83C
:101F60004120002318460837BD4680BD00000140CF
:101F70000004014080B584B000AF78603960002370
:101F8000FB733B68002B09D17B6893F83E30DBB2D2
:101F9000012B14BF01230023DBB222E03B68042B9A
:101FA00009D17B6893F83F30DBB2012B14BF0123CA
:101FB0000023DBB215E03B68082B09D17B6893F85E
:101FC0004030DBB2012B14BF01230023DBB208E059
:101FD0007B6893F84130DBB2012B14BF012300234F
:101FE000DBB2002B01D00123C7E03B68002B04D1FA
:101FF0007B68022283F83E2013E03B68042B04D167
:102000007B68022283F83F200BE03B68082B04D159
:102010007B68022283F8402003E07B68022283F879
:1020200041203B680C2B41D801A252F823F000BF9D
:1020300065200008AD200008AD200008AD20000894
:1020400077200008AD200008AD200008AD20000872
:1020500089200008AD200008AD200008AD20000850
:102060009B2000087B681B68DA687B681B6842F06D
:102070000202DA601DE07B681B68DA687B681B6817
:1020800042F00402DA6014E07B681B68DA687B685F
:102090001B6842F00802DA600BE07B681B68DA68B4
:1020A0007B681B6842F01002DA6002E00123FB73D8
:1020B00000BFFB7B002B5FD17B681B680122396866
:1020C000184604F075FB7B681B682E4A934204D0C7
:1020D0007B681B682C4A934201D1012300E0002356
:1020E000002B07D07B681B685A6C7B681B6842F426
:1020F00000425A647B681B68224A934222D07B6864
:102100001B68B3F1804F1DD07B681B681F4A934248
:1021100018D07B681B681E4A934213D07B681B68EB
:102120001C4A93420ED07B681B68174A934209D021
:102130007B681B68184A934204D07B681B68174A67
:10214000934211D17B681B689B6803F00703BB6057
:10215000BB68062B10D07B681B681A687B681B68FD
:1021600042F001021A6007E07B681B681A687B680E
:102170001B6842F001021A60FB7B18461037BD460F
:1021800080BD00BF00000140000401400004004089
:1021900000080040000C00400040014000180040D2
:1021A00080B584B000AF786039600023FB733B6872
:1021B0000C2B41D801A252F823F000BFF1210008F6
:1021C00039220008392200083922000803220008B9
:1021D0003922000839220008392200081522000897
:1021E0003922000839220008392200082722000875
:1021F0007B681B68DA687B681B6822F00202DA6081
:102200001DE07B681B68DA687B681B6822F00402AB
:10221000DA6014E07B681B68DA687B681B6822F070
:102220000802DA600BE07B681B68DA687B681B6871
:1022300022F01002DA6002E00123FB7300BFFB7B97
:10224000002B61D17B681B6800223968184604F0B6
:10225000AFFA7B681B682F4A934204D07B681B68E7
:102260002D4A934201D1012300E00023002B17D017
:102270007B681B681A6A41F211131340002B0FD1BF
:102280007B681B681A6A40F244431340002B07D155
:102290007B681B685A6C7B681B6822F400425A6496
:1022A0007B681B681A6A41F211131340002B0FD18F
:1022B0007B681B681A6A40F244431340002B07D125
:1022C0007B681B681A687B681B6822F001021A6031
:1022D0003B68002B04D17B68012283F83E2013E089
:1022E0003B68042B04D17B68012283F83F200BE07C
:1022F0003B68082B04D17B68012283F8402003E06F
:102300007B68012283F84120FB7B18461037BD46CD
:1023100080BD00BF000001400004014080B586B0D0
:1023200000AFF860B9607A607B800023FB75BB6802
:10233000002B09D1FB6893F83E30DBB2022B0CBFB7
:1023400001230023DBB222E0BB68042B09D1FB6828
:1023500093F83F30DBB2022B0CBF01230023DBB22A
:1023600015E0BB68082B09D1FB6893F84030DBB25D
:10237000022B0CBF01230023DBB208E0FB6893F8BB
:102380004130DBB2022B0CBF01230023DBB2002B58
:1023900001D0022371E1BB68002B09D1FB6893F8DF
:1023A0003E30DBB2012B0CBF01230023DBB222E065
:1023B000BB68042B09D1FB6893F83F30DBB2012BDB
:1023C0000CBF01230023DBB215E0BB68082B09D149
:1023D000FB6893F84030DBB2012B0CBF01230023D4
:1023E000DBB208E0FB6893F84130DBB2012B0CBF95
:1023F00001230023DBB2002B24D07B68002B04D107
:102400007B88002B01D0012337E1BB68002B04D16E
:10241000FB68022283F83E2016E0BB68042B04D13F
:10242000FB68022283F83F200EE0BB68082B04D132
:10243000FB68022283F8402006E0FB68022283F852
:10244000412001E0012318E1BB680C2B00F2AE80B3
:1024500001A252F823F000BF8D240008AD2500082A
:10246000AD250008AD250008D5240008AD250008DD
:10247000AD250008AD2500081D250008AD25000884
:10248000AD250008AD25000865250008FB685B6ADE
:102490007C4ADA63FB685B6A7B4A1A64FB685B6AA6
:1024A0007A4ADA64FB68586A7968FB681B683433D7
:1024B0001A467B880FF057FE0346002B01D00123FC
:1024C000DBE0FB681B68DA68FB681B6842F400729B
:1024D000DA606EE0FB689B6A6A4ADA63FB689B6AB3
:1024E000694A1A64FB689B6A684ADA64FB68986AFE
:1024F0007968FB681B6838331A467B880FF033FE17
:102500000346002B01D00123B7E0FB681B68DA68A3
:10251000FB681B6842F48062DA604AE0FB68DB6AB1
:10252000584ADA63FB68DB6A574A1A64FB68DB6A5D
:10253000564ADA64FB68D86A7968FB681B683C33E2
:102540001A467B880FF00FFE0346002B01D00123B3
:1025500093E0FB681B68DA68FB681B6842F4006262
:10256000DA6026E0FB681B6B464ADA63FB681B6B8C
:10257000454A1A64FB681B6B444ADA64FB68186BB3
:102580007968FB681B6840331A467B880FF0EBFDC7
:102590000346002B01D001236FE0FB681B68DA685B
:1025A000FB681B6842F48052DA6002E00123FB758D
:1025B00000BFFB7D002B5FD1FB681B680122B9685F
:1025C000184604F0F5F8FB681B68314A934204D0C2
:1025D000FB681B682F4A934201D1012300E00023CE
:1025E000002B07D0FB681B685A6CFB681B6842F421
:1025F00000425A64FB681B68254A934222D0FB685C
:102600001B68B3F1804F1DD0FB681B68224A9342C0
:1026100018D0FB681B68214A934213D0FB681B68E3
:102620001F4A93420ED0FB681B681A4A934209D096
:10263000FB681B681B4A934204D0FB681B681A4A5C
:10264000934211D1FB681B689B6803F007033B6151
:102650003B69062B10D0FB681B681A68FB681B6877
:1026600042F001021A6007E0FB681B681A68FB6809
:102670001B6842F001021A60FB7D18461837BD4600
:1026800080BD00BF915B0008395C0008FF5A00085C
:102690000000014000040140000400400008004028
:1026A000000C0040004001400018004080B584B09C
:1026B00000AF786039600023FB733B680C2B55D862
:1026C00001A252F823F000BFFD2600086D27000884
:1026D0006D2700086D270008192700086D270008DE
:1026E0006D2700086D270008352700086D270008B2
:1026F0006D2700086D270008512700087B681B68BC
:10270000DA687B681B6822F40072DA607B685B6AB7
:1027100018460FF0F0FD2CE07B681B68DA687B68D8
:102720001B6822F48062DA607B689B6A18460FF0AF
:10273000E2FD1EE07B681B68DA687B681B6822F498
:102740000062DA607B68DB6A18460FF0D4FD10E0A7
:102750007B681B68DA687B681B6822F48052DA6049
:102760007B681B6B18460FF0C6FD02E00123FB736C
:1027700000BFFB7B002B61D17B681B68002239689E
:10278000184604F015F87B681B682F4A934204D062
:102790007B681B682D4A934201D1012300E000238E
:1027A000002B17D07B681B681A6A41F21113134083
:1027B000002B0FD17B681B681A6A40F24443134018
:1027C000002B07D17B681B685A6C7B681B6822F45E
:1027D00000425A647B681B681A6A41F21113134065
:1027E000002B0FD17B681B681A6A40F244431340E8
:1027F000002B07D17B681B681A687B681B6822F076
:1028000001021A603B68002B04D17B68012283F827
:102810003E2013E03B68042B04D17B68012283F83F
:102820003F200BE03B68082B04D17B68012283F832
:10283000402003E07B68012283F84120FB7B18469F
:102840001037BD4680BD00BF0000014000040140BC
:1028500080B582B000AF78607B68002B01D1012386
:1028600041E07B6893F83D30DBB2002B06D17B68FA
:10287000002283F83C20786800F08DF87B68022203
:1028800083F83D207B681A687B680433194610463C
:1028900003F0E8FA7B68012283F846207B68012276
:1028A00083F83E207B68012283F83F207B68012269
:1028B00083F840207B68012283F841207B68012255
:1028C00083F842207B68012283F843207B68012241
:1028D00083F844207B68012283F845207B6801222D
:1028E00083F83D20002318460837BD4680BD80B5DB
:1028F00082B000AF78607B68022283F83D207B685D
:102900001B681A6A41F211131340002B0FD17B6828
:102910001B681A6A40F244431340002B07D17B68BE
:102920001B681A687B681B6822F001021A607868CD
:1029300000F03BF87B68002283F846207B68002289
:1029400083F83E207B68002283F83F207B680022CA
:1029500083F840207B68002283F841207B680022B6
:1029600083F842207B68002283F843207B680022A2
:1029700083F844207B68002283F845207B6800228E
:1029800083F83D207B68002283F83C200023184612
:102990000837BD4680BD80B483B000AF786000BF0B
:1029A0000C37BD465DF8047B704780B483B000AF40
:1029B000786000BF0C37BD465DF8047B70470000AF
:1029C00080B584B000AF786039603B68002B04D1DB
:1029D0007B6893F83E30DBB213E03B68042B04D1F4
:1029E0007B6893F83F30DBB20BE03B68082B04D1E7
:1029F0007B6893F84030DBB203E07B6893F84130AA
:102A0000DBB2FB733B68002B04D17B6893F8423048
:102A1000DBB213E03B68042B04D17B6893F84330AE
:102A2000DBB20BE03B68082B04D17B6893F84430A1
:102A3000DBB203E07B6893F84530DBB2BB73FB7B12
:102A4000012B02D1BB7B012B01D0012381E03B682C
:102A5000002B04D17B68022283F83E2013E03B6800
:102A6000042B04D17B68022283F83F200BE03B68F3
:102A7000082B04D17B68022283F8402003E07B68A6
:102A8000022283F841203B68002B04D17B6802229C
:102A900083F8422013E03B68042B04D17B680222B8
:102AA00083F843200BE03B68082B04D17B680222AB
:102AB00083F8442003E07B68022283F845207B688A
:102AC0001B6801223968184603F072FE7B681B6898
:102AD000224A934222D07B681B68B3F1804F1DD0FD
:102AE0007B681B681E4A934218D07B681B681D4A8E
:102AF000934213D07B681B681B4A93420ED07B68BD
:102B00001B681A4A934209D07B681B68184A934293
:102B100004D07B681B68174A934211D17B681B68FD
:102B20009B6803F00703BB60BB68062B10D07B6873
:102B30001B681A687B681B6842F001021A6007E094
:102B40007B681B681A687B681B6842F001021A6088
:102B5000002318461037BD4680BD00BF000001406D
:102B60000004004000080040000C00400004014048
:102B7000004001400018004080B582B000AF78608E
:102B800039607B681B6800223968184603F010FE24
:102B90007B681B681A6A41F211131340002B0FD196
:102BA0007B681B681A6A40F244431340002B07D12C
:102BB0007B681B681A687B681B6822F001021A6038
:102BC0003B68002B04D17B68012283F83E2013E090
:102BD0003B68042B04D17B68012283F83F200BE083
:102BE0003B68082B04D17B68012283F8402003E076
:102BF0007B68012283F841203B68002B04D17B686D
:102C0000012283F8422013E03B68042B04D17B6847
:102C1000012283F843200BE03B68082B04D17B683A
:102C2000012283F8442003E07B68012283F84520D9
:102C3000002318460837BD4680BD000080B584B02B
:102C400000AF786039600023FB733B68002B04D130
:102C50007B6893F83E30DBB213E03B68042B04D171
:102C60007B6893F83F30DBB20BE03B68082B04D164
:102C70007B6893F84030DBB203E07B6893F8413027
:102C8000DBB2BB733B68002B04D17B6893F8423006
:102C9000DBB213E03B68042B04D17B6893F843302C
:102CA000DBB20BE03B68082B04D17B6893F844301F
:102CB000DBB203E07B6893F84530DBB27B73BB7B10
:102CC000012B02D17B7B012B01D00123CCE03B689F
:102CD000002B04D17B68022283F83E2013E03B687E
:102CE000042B04D17B68022283F83F200BE03B6871
:102CF000082B04D17B68022283F8402003E07B6824
:102D0000022283F841203B68002B04D17B68022219
:102D100083F8422013E03B68042B04D17B68022235
:102D200083F843200BE03B68082B04D17B68022228
:102D300083F8442003E07B68022283F845203B6847
:102D40000C2B41D801A252F823F000BF812D0008BE
:102D5000C92D0008C92D0008C92D0008932D0008B1
:102D6000C92D0008C92D0008C92D0008A52D00088F
:102D7000C92D0008C92D0008C92D0008B72D00086D
:102D80007B681B68DA687B681B6842F00202DA60C5
:102D90001DE07B681B68DA687B681B6842F00402F0
:102DA000DA6014E07B681B68DA687B681B6842F0B5
:102DB0000802DA600BE07B681B68DA687B681B68D6
:102DC00042F01002DA6002E00123FB7300BFFB7BDC
:102DD000002B48D17B681B6801223968184603F034
:102DE000E7FC7B681B68224A934222D07B681B6801
:102DF000B3F1804F1DD07B681B681E4A934218D0E8
:102E00007B681B681C4A934213D07B681B681B4A73
:102E100093420ED07B681B68194A934209D07B68A5
:102E20001B68184A934204D07B681B68164A934279
:102E300011D17B681B689B6803F00703BB60BB680C
:102E4000062B10D07B681B681A687B681B6842F0F1
:102E500001021A6007E07B681B681A687B681B68C0
:102E600042F001021A60FB7B18461037BD4680BD58
:102E7000000001400004004000080040000C004039
:102E800000040140004001400018004080B584B0BB
:102E900000AF786039600023FB733B680C2B41D88E
:102EA00001A252F823F000BFDD2E0008252F0008F4
:102EB000252F0008252F0008EF2E0008252F0008D9
:102EC000252F0008252F0008012F0008252F0008B6
:102ED000252F0008252F0008132F00087B681B688A
:102EE000DA687B681B6822F00202DA601DE07B680A
:102EF0001B68DA687B681B6822F00402DA6014E061
:102F00007B681B68DA687B681B6822F00802DA605D
:102F10000BE07B681B68DA687B681B6822F0100294
:102F2000DA6002E00123FB7300BFFB7B002B56D16C
:102F30007B681B6800223968184603F039FC7B68FF
:102F40001B681A6A41F211131340002B0FD17B68E2
:102F50001B681A6A40F244431340002B07D17B6878
:102F60001B681A687B681B6822F001021A603B68C4
:102F7000002B04D17B68012283F83E2013E03B68DC
:102F8000042B04D17B68012283F83F200BE03B68CF
:102F9000082B04D17B68012283F8402003E07B6882
:102FA000012283F841203B68002B04D17B68012279
:102FB00083F8422013E03B68042B04D17B68012294
:102FC00083F843200BE03B68082B04D17B68012287
:102FD00083F8442003E07B68012283F84520FB7BD3
:102FE00018461037BD4680BD80B586B000AFF8608A
:102FF000B9607A607B800023FB75BB68002B04D12D
:10300000FB6893F83E30DBB213E0BB68042B04D1BD
:10301000FB6893F83F30DBB20BE0BB68082B04D1B0
:10302000FB6893F84030DBB203E0FB6893F8413073
:10303000DBB2BB75BB68002B04D1FB6893F8423050
:10304000DBB213E0BB68042B04D1FB6893F8433078
:10305000DBB20BE0BB68082B04D1FB6893F844306B
:10306000DBB203E0FB6893F84530DBB27B75BB7DD8
:10307000022B02D07B7D022B01D1022346E1BB7DD6
:10308000012B43D17B7D012B40D17B68002B04D1E8
:103090007B88002B01D0012338E1BB68002B04D1D1
:1030A000FB68022283F83E2013E0BB68042B04D1A6
:1030B000FB68022283F83F200BE0BB68082B04D199
:1030C000FB68022283F8402003E0FB68022283F8B9
:1030D0004120BB68002B04D1FB68022283F8422008
:1030E00016E0BB68042B04D1FB68022283F843205E
:1030F0000EE0BB68082B04D1FB68022283F8442051
:1031000006E0FB68022283F8452001E00123FDE090
:10311000FB681B680122B968184603F049FBBB68CD
:103120000C2B00F2AD8001A252F823F061310008AF
:10313000813200088132000881320008A93100087C
:10314000813200088132000881320008F131000824
:1031500081320008813200088132000839320008CB
:10316000FB685B6A6B4ADA63FB685B6A6A4A1A64EB
:10317000FB685B6A694ADA64FB68586AFB681B682B
:10318000343319467A687B880EF0EDFF0346002B36
:1031900001D00123BAE0FB681B68DA68FB681B6892
:1031A00042F40072DA606EE0FB689B6A594ADA63A7
:1031B000FB689B6A584A1A64FB689B6A574ADA6440
:1031C000FB68986AFB681B68383319467A687B8805
:1031D0000EF0C9FF0346002B01D0012396E0FB68E7
:1031E0001B68DA68FB681B6842F48062DA604AE0B8
:1031F000FB68DB6A474ADA63FB68DB6A464A1A64A3
:10320000FB68DB6A454ADA64FB68D86AFB681B68BE
:103210003C3319467A687B880EF0A5FF0346002BE5
:1032200001D0012372E0FB681B68DA68FB681B6849
:1032300042F40062DA6026E0FB681B6B354ADA6311
:10324000FB681B6B344A1A64FB681B6B334ADA64F5
:10325000FB68186BFB681B68403319467A687B88EB
:103260000EF081FF0346002B01D001234EE0FB68E6
:103270001B68DA68FB681B6842F48052DA6002E07F
:103280000123FB7500BFFB681B68254A934222D0CF
:10329000FB681B68B3F1804F1DD0FB681B68214A97
:1032A000934218D0FB681B681F4A934213D0FB68F7
:1032B0001B681E4A93420ED0FB681B681C4A93424F
:1032C00009D0FB681B681B4A934204D0FB681B684B
:1032D000194A934211D1FB681B689B6803F00703EE
:1032E0003B613B69062B10D0FB681B681A68FB68C2
:1032F0001B6842F001021A6007E0FB681B681A684D
:10330000FB681B6842F001021A60FB7D1846183703
:10331000BD4680BDA15C0008695D0008FF5A000839
:10332000000001400004004000080040000C004084
:1033300000040140004001400018004080B584B006
:1033400000AF786039600023FB737B681B68002244
:103350003968184603F02CFA3B680C2B54D801A2AC
:1033600052F823F0993300080934000809340008A2
:1033700009340008B533000809340008093400088E
:1033800009340008D1330008093400080934000862
:1033900009340008ED3300087B681B68DA687B6835
:1033A0001B6822F40072DA607B685B6A18460EF0D4
:1033B000A2FF2CE07B681B68DA687B681B6822F43C
:1033C0008062DA607B689B6A18460EF094FF1EE00C
:1033D0007B681B68DA687B681B6822F40062DA602D
:1033E0007B68DB6A18460EF086FF10E07B681B687E
:1033F000DA687B681B6822F48052DA607B681B6B9A
:1034000018460EF078FF02E00123FB7300BFFB7B40
:10341000002B4FD17B681B681A6A41F211131340CD
:10342000002B0FD17B681B681A6A40F2444313409B
:10343000002B07D17B681B681A687B681B6822F029
:1034400001021A603B68002B04D17B68012283F8DB
:103450003E2013E03B68042B04D17B68012283F8F3
:103460003F200BE03B68082B04D17B68012283F8E6
:10347000402003E07B68012283F841203B68002B59
:1034800004D17B68012283F8422013E03B68042BBF
:1034900004D17B68012283F843200BE03B68082BB2
:1034A00004D17B68012283F8442003E07B68012279
:1034B00083F84520FB7B18461037BD4680BD00BF12
:1034C00080B582B000AF786039607B68002B01D195
:1034D000012341E07B6893F83D30DBB2002B06D13D
:1034E0007B68002283F83C20786800F07DF87B68D8
:1034F000022283F83D207B681A687B6804331946F2
:10350000104602F0AFFC7B681B681A687B681B687A
:1035100022F008021A607B681B6819687B681B68C8
:103520003A680A431A607B68012283F846207B6868
:10353000012283F83E207B68012283F83F207B68CC
:10354000012283F842207B68012283F843207B68B4
:10355000012283F83D20002318460837BD4680BD70
:1035600080B582B000AF78607B68022283F83D208E
:103570007B681B681A6A41F211131340002B0FD1AC
:103580007B681B681A6A40F244431340002B07D142
:103590007B681B681A687B681B6822F001021A604E
:1035A000786800F02BF87B68002283F846207B685F
:1035B000002283F83E207B68002283F83F207B684E
:1035C000002283F842207B68002283F843207B6836
:1035D000002283F83D207B68002283F83C200023F2
:1035E00018460837BD4680BD80B483B000AF786010
:1035F00000BF0C37BD465DF8047B704780B483B0D4
:1036000000AF786000BF0C37BD465DF8047B7047A3
:1036100080B584B000AF786039607B6893F83E3045
:10362000FB737B6893F83F30BB737B6893F8423041
:103630007B737B6893F843303B73FB7B012B08D192
:10364000BB7B012B05D17B7B012B02D13B7B012B6B
:1036500001D0012335E07B68022283F83E207B689D
:10366000022283F83F207B68022283F842207B6895
:10367000022283F843207B681B6801220021184640
:1036800003F096F87B681B6801220421184603F0BA
:103690008FF87B681B680D4A934204D07B681B68D7
:1036A0000B4A934201D1012300E00023002B07D0F5
:1036B0007B681B685A6C7B681B6842F400425A6442
:1036C000002318461037BD4680BD00BF00000140F2
:1036D0000004014080B582B000AF786039607B683B
:1036E0001B6800220021184603F062F87B681B6803
:1036F00000220421184603F05BF87B681B68294A06
:10370000934204D07B681B68274A934201D101236E
:1037100000E00023002B17D07B681B681A6A41F277
:1037200011131340002B0FD17B681B681A6A40F2FB
:1037300044431340002B07D17B681B685A6C7B689D
:103740001B6822F400425A647B681B681A6A41F2C3
:1037500011131340002B0FD17B681B681A6A40F2CB
:1037600044431340002B07D17B681B681A687B68B1
:103770001B6822F001021A607B68012283F83E2058
:103780007B68012283F83F207B68012283F8422076
:103790007B68012283F84320002318460837BD4682
:1037A00080BD00BF000001400004014080B584B02E
:1037B00000AF786039607B6893F83E30FB737B68BC
:1037C00093F83F30BB737B6893F842307B737B6820
:1037D00093F843303B73FB7B012B08D1BB7B012B60
:1037E00005D17B7B012B02D13B7B012B01D0012337
:1037F00045E07B68022283F83E207B68022283F842
:103800003F207B68022283F842207B68022283F8F3
:1038100043207B681B68DA687B681B6842F0020201
:10382000DA607B681B68DA687B681B6842F0040218
:10383000DA607B681B6801220021184602F0B8FF9D
:103840007B681B6801220421184602F0B1FF7B68E7
:103850001B680D4A934204D07B681B680B4A934255
:1038600001D1012300E00023002B07D07B681B68F7
:103870005A6C7B681B6842F400425A640023184665
:103880001037BD4680BD00BF00000140000401406C
:1038900080B582B000AF786039607B681B68DA68F9
:1038A0007B681B6822F00202DA607B681B68DA68BA
:1038B0007B681B6822F00402DA607B681B680022C8
:1038C0000021184602F074FF7B681B680022042167
:1038D000184602F06DFF7B681B68294A934204D0AA
:1038E0007B681B68274A934201D1012300E0002333
:1038F000002B17D07B681B681A6A41F21113134022
:10390000002B0FD17B681B681A6A40F244431340B6
:10391000002B07D17B681B685A6C7B681B6822F4FC
:1039200000425A647B681B681A6A41F21113134003
:10393000002B0FD17B681B681A6A40F24443134086
:10394000002B07D17B681B681A687B681B6822F014
:1039500001021A607B68012283F83E207B68012205
:1039600083F83F207B68012283F842207B68012294
:1039700083F84320002318460837BD4680BD00BFAA
:10398000000001400004014080B586B000AF7860BF
:1039900039607B68002B01D1012397E07B6893F8A5
:1039A0003D30DBB2002B06D17B68002283F83C203F
:1039B000786800F0D3F87B68022283F83D207B68AA
:1039C0001B689B687A68126823F4804323F007031E
:1039D00093607B681A687B6804331946104602F0CE
:1039E00041FA7B681B689B687B617B681B689B69ED
:1039F0003B617B681B681B6AFB603B681B687A69DC
:103A000013437B613B6923F4407323F003033B6161
:103A10003B689A683B689B691B0213433A691343EE
:103A20003B613B6923F4406323F00C033B613B693A
:103A300023F4704323F0F0033B613B68DA683B6892
:103A4000DB691B0213433A6913433B613B681B6903
:103A50001A013B681B6A1B0313433A6913433B611A
:103A6000FB6823F02203FB60FB6823F08803FB6004
:103A70003B685A683B685B691B011343FA68134350
:103A8000FB607B681B687A699A607B681B683A698F
:103A90009A617B681B68FA681A627B68012283F866
:103AA00046207B68012283F83E207B68012283F850
:103AB0003F207B68012283F842207B68012283F843
:103AC00043207B68012283F83D20002318461837E5
:103AD000BD4680BD80B582B000AF78607B680222B1
:103AE00083F83D207B681B681A6A41F2111313406A
:103AF000002B0FD17B681B681A6A40F244431340C5
:103B0000002B07D17B681B681A687B681B6822F052
:103B100001021A60786800F02BF87B68002283F8B5
:103B200046207B68002283F83E207B68002283F8D1
:103B30003F207B68002283F842207B68002283F8C4
:103B400043207B68002283F83D207B68002283F8B5
:103B50003C20002318460837BD4680BD80B483B0A2
:103B600000AF786000BF0C37BD465DF8047B70473E
:103B700080B483B000AF786000BF0C37BD465DF8FD
:103B8000047B704780B584B000AF786039607B6893
:103B900093F83E30FB737B6893F83F30BB737B68D0
:103BA00093F842307B737B6893F843303B733B68F8
:103BB000002B10D1FB7B012B02D17B7B012B01D091
:103BC000012369E07B68022283F83E207B680222A1
:103BD00083F8422031E03B68042B10D1BB7B012BE2
:103BE00002D13B7B012B01D0012355E07B680222EF
:103BF00083F83F207B68022283F843201DE0FB7B93
:103C0000012B08D1BB7B012B05D17B7B012B02D182
:103C10003B7B012B01D001233EE07B68022283F82D
:103C20003E207B68022283F83F207B68022283F8D3
:103C300042207B68022283F843203B68002B03D09C
:103C40003B68042B08D00FE07B681B680122002131
:103C5000184602F0ADFD16E07B681B6801220421C6
:103C6000184602F0A5FD0EE07B681B6801220021CA
:103C7000184602F09DFD7B681B680122042118464E
:103C800002F096FD00BF7B681B681A687B681B68A2
:103C900042F001021A60002318461037BD4680BD6D
:103CA00080B582B000AF786039603B68002B03D0EC
:103CB0003B68042B08D00FE07B681B6800220021C2
:103CC000184602F075FD16E07B681B68002204218F
:103CD000184602F06DFD0EE07B681B680022002193
:103CE000184602F065FD7B681B6800220421184617
:103CF00002F05EFD00BF7B681B681A6A41F2111377
:103D00001340002B0FD17B681B681A6A40F24443B2
:103D10001340002B07D17B681B681A687B681B68FF
:103D200022F001021A603B68002B02D03B68042B92
:103D300038D13B68002B04D17B68012283F83E20F8
:103D400013E03B68042B04D17B68012283F83F20F9
:103D50000BE03B68082B04D17B68012283F84020EC
:103D600003E07B68012283F841203B68002B04D1EB
:103D70007B68012283F8422024E03B68042B04D1B5
:103D80007B68012283F843201CE03B68082B04D1A8
:103D90007B68012283F8442014E07B68012283F8C9
:103DA00045200FE07B68012283F83E207B680122DA
:103DB00083F83F207B68012283F842207B68012240
:103DC00083F84320002318460837BD4680BD80B5E0
:103DD00084B000AF786039607B6893F83E30FB7345
:103DE0007B6893F83F30BB737B6893F842307B73FA
:103DF0007B6893F843303B733B68002B10D1FB7B0F
:103E0000012B02D17B7B012B01D0012389E07B6850
:103E1000022283F83E207B68022283F8422031E0B0
:103E20003B68042B10D1BB7B012B02D13B7B012BC8
:103E300001D0012375E07B68022283F83F207B6874
:103E4000022283F843201DE0FB7B012B08D1BB7BC2
:103E5000012B05D17B7B012B02D13B7B012B01D0B8
:103E600001235EE07B68022283F83E207B68022209
:103E700083F83F207B68022283F842207B6802227D
:103E800083F843203B68002B03D03B68042B10D001
:103E90001FE07B681B6801220021184602F088FCA5
:103EA0007B681B68DA687B681B6842F00202DA6094
:103EB0002EE07B681B6801220421184602F078FC82
:103EC0007B681B68DA687B681B6842F00402DA6072
:103ED0001EE07B681B6801220021184602F068FC86
:103EE0007B681B6801220421184602F061FC7B6894
:103EF0001B68DA687B681B6842F00202DA607B6844
:103F00001B68DA687B681B6842F00402DA6000BF55
:103F10007B681B681A687B681B6842F001021A60A4
:103F2000002318461037BD4680BD80B582B000AF73
:103F3000786039603B68002B0FD17B681B680022DA
:103F40000021184602F034FC7B681B68DA687B6845
:103F50001B6822F00202DA6030E03B68042B0FD1CC
:103F60007B681B6800220421184602F021FC7B6854
:103F70001B68DA687B681B6822F00402DA601DE0C7
:103F80007B681B6800220021184602F011FC7B6848
:103F90001B6800220421184602F00AFC7B681B689B
:103FA000DA687B681B6822F00202DA607B681B68B3
:103FB000DA687B681B6822F00402DA607B681B68A1
:103FC0001A6A41F211131340002B0FD17B681B6852
:103FD0001A6A40F244431340002B07D17B681B68E8
:103FE0001A687B681B6822F001021A603B68002B8C
:103FF00002D03B68042B38D13B68002B04D17B688E
:10400000012283F83E2013E03B68042B04D17B6837
:10401000012283F83F200BE03B68082B04D17B682A
:10402000012283F8402003E07B68012283F84120CD
:104030003B68002B04D17B68012283F8422024E0F6
:104040003B68042B04D17B68012283F843201CE0E9
:104050003B68082B04D17B68012283F8442014E0DC
:104060007B68012283F845200FE07B68012283F8FA
:104070003E207B68012283F83F207B68012283F881
:1040800042207B68012283F843200023184608372A
:10409000BD4680BD80B586B000AFF860B9607A607B
:1040A0003B60FB6893F83E30FB75FB6893F83F304C
:1040B000BB75FB6893F842307B75FB6893F843301F
:1040C0003B75BB68002B20D1FB7D022B02D07B7D92
:1040D000022B01D102233FE1FB7D012B13D17B7D1C
:1040E000012B10D17B68002B04D13B8C002B01D01D
:1040F000012331E1FB68022283F83E20FB680222A3
:1041000083F842205DE0012326E1BB68042B20D127
:10411000BB7D022B02D03B7D022B01D102231BE190
:10412000BB7D012B13D13B7D012B10D13B68002BB4
:1041300004D13B8C002B01D001230DE1FB6802224E
:1041400083F83F20FB68022283F8432039E00123F3
:1041500002E1FB7D022B08D0BB7D022B05D07B7DCD
:10416000022B02D03B7D022B01D10223F4E0FB7D28
:10417000012B24D1BB7D012B21D17B7D012B1ED1B5
:104180003B7D012B1BD17B68002B02D03B68002BB1
:1041900004D13B8C002B01D00123DDE0FB6802221F
:1041A00083F83E20FB68022283F83F20FB6802224E
:1041B00083F84220FB68022283F8432001E00123B8
:1041C000CAE0BB68002B03D0BB68042B33D065E08A
:1041D000FB685B6A624ADA63FB685B6A614A1A647D
:1041E000FB685B6A604ADA64FB68586AFB681B68B4
:1041F000343319467A683B8C0DF0B5FF0346002B2B
:1042000001D00123A8E0FB681B68DA68FB681B6823
:1042100042F40072DA60FB681B6801220021184634
:1042200002F0C6FAFB681B681A68FB681B6842F05C
:1042300001021A608FE0FB689B6A494ADA63FB68F7
:104240009B6A484A1A64FB689B6A474ADA64FB68BF
:10425000986AFB681B68383319463A683B8C0DF046
:1042600082FF0346002B01D0012375E0FB681B6829
:10427000DA68FB681B6842F48062DA60FB681B68DE
:1042800001220421184602F093FAFB681B681A68A1
:10429000FB681B6842F001021A605CE0FB685B6A25
:1042A0002F4ADA63FB685B6A2E4A1A64FB685B6A12
:1042B0002D4ADA64FB68586AFB681B683433194678
:1042C0007A683B8C0DF04FFF0346002B01D0012391
:1042D00042E0FB689B6A224ADA63FB689B6A214AD8
:1042E0001A64FB689B6A204ADA64FB68986AFB6878
:1042F0001B68383319463A683B8C0DF034FF03468F
:10430000002B01D0012327E0FB681B68DA68FB68FB
:104310001B6842F40072DA60FB681B68DA68FB68AD
:104320001B6842F48062DA60FB681B68012200218E
:10433000184602F03DFAFB681B680122042118466A
:1043400002F036FAFB681B681A68FB681B6842F0CB
:1043500001021A6000BF002318461837BD4680BD11
:10436000A15C0008695D0008FF5A000880B582B0B2
:1043700000AF786039603B68002B14D17B681B6804
:1043800000220021184602F013FA7B681B68DA68E5
:104390007B681B6822F40072DA607B685B6A1846EF
:1043A0000DF0A9FF3FE03B68042B14D17B681B682C
:1043B00000220421184602F0FBF97B681B68DA68CA
:1043C0007B681B6822F48062DA607B689B6A18460F
:1043D0000DF091FF27E07B681B6800220021184642
:1043E00002F0E6F97B681B6800220421184602F0FF
:1043F000DFF97B681B68DA687B681B6822F400724F
:10440000DA607B681B68DA687B681B6822F480626C
:10441000DA607B685B6A18460DF06DFF7B689B6A0B
:1044200018460DF068FF7B681B681A6A41F2111389
:104430001340002B0FD17B681B681A6A40F244437B
:104440001340002B07D17B681B681A687B681B68C8
:1044500022F001021A603B68002B02D03B68042B5B
:1044600038D13B68002B04D17B68012283F83E20C1
:1044700013E03B68042B04D17B68012283F83F20C2
:104480000BE03B68082B04D17B68012283F84020B5
:1044900003E07B68012283F841203B68002B04D1B4
:1044A0007B68012283F8422024E03B68042B04D17E
:1044B0007B68012283F843201CE03B68082B04D171
:1044C0007B68012283F8442014E07B68012283F892
:1044D00045200FE07B68012283F83E207B680122A3
:1044E00083F83F207B68012283F842207B68012209
:1044F00083F84320002318460837BD4680BD80B5A9
:1045000082B000AF78607B681B681B6903F0020310
:10451000022B22D17B681B68DB6803F00203022BAD
:104520001BD17B681B686FF002021A617B68012255
:104530001A777B681B689B6903F00303002B03D089
:10454000786801F0FFF905E0786801F0F1F9786822
:1045500001F00CFA7B6800221A777B681B681B69E4
:1045600003F00403042B22D17B681B68DB6803F093
:104570000403042B1BD17B681B686FF004021A61D3
:104580007B6802221A777B681B689B6903F440737F
:10459000002B03D0786801F0D5F905E0786801F0C8
:1045A000C7F9786801F0E2F97B6800221A777B6826
:1045B0001B681B6903F00803082B22D17B681B686A
:1045C000DB6803F00803082B1BD17B681B686FF0C6
:1045D00008021A617B6804221A777B681B68DB6912
:1045E00003F00303002B03D0786801F0ABF905E07A
:1045F000786801F09DF9786801F0B8F97B680022CD
:104600001A777B681B681B6903F01003102B22D1FB
:104610007B681B68DB6803F01003102B1BD17B68E1
:104620001B686FF010021A617B6808221A777B689A
:104630001B68DB6903F44073002B03D0786801F03A
:1046400081F905E0786801F073F9786801F08EF976
:104650007B6800221A777B681B681B6903F00103E3
:10466000012B0ED17B681B68DB6803F00103012B73
:1046700007D17B681B686FF001021A61786801F04E
:1046800043F97B681B681B6903F08003802B0ED104
:104690007B681B68DB6803F08003802B07D17B6895
:1046A0001B686FF080021A61786804F07EF97B68FD
:1046B0001B681B6903F04003402B0ED17B681B680D
:1046C000DB6803F04003402B07D17B681B686FF069
:1046D00040021A61786801F05DF97B681B681B690C
:1046E00003F02003202B0ED17B681B68DB6803F0EE
:1046F0002003202B07D17B681B686FF020021A6112
:10470000786804F03EF900BF0837BD4680BD000060
:1047100080B586B000AFF860B9607A600023FB75A1
:10472000FB6893F83C30012B01D1022348E0FB6881
:10473000012283F83C207B680C2B39D801A252F867
:1047400023F000BF79470008B1470008B1470008CF
:10475000B147000887470008B1470008B147000883
:10476000B147000895470008B1470008B147000865
:10477000B1470008A3470008FB681B68B9681846E2
:1047800001F010FC17E0FB681B68B968184601F0DF
:1047900079FC10E0FB681B68B968184601F0E8FC7A
:1047A00009E0FB681B68B968184601F055FD02E096
:1047B0000123FB7500BFFB68002283F83C20FB7DD2
:1047C00018461837BD4680BD80B586B000AFF8608A
:1047D000B9607A600023FB75FB6893F83C30012BCD
:1047E00001D1022388E0FB68012283F83C207B682A
:1047F000002B1BD1FB681868BB681968BB685A6836
:10480000BB68DB6801F010FEFB681B689A69FB68F7
:104810001B6822F00C029A61FB681B689969BB68EF
:104820009A68FB681B680A439A6160E07B68042B06
:104830001CD1FB681868BB681968BB685A68BB68FC
:10484000DB6801F094FEFB681B689A69FB681B68D3
:1048500022F440629A61FB681B689969BB689B6897
:104860001A02FB681B680A439A6140E07B68082BC8
:104870001BD1FB681868BB681968BB685A68BB68BD
:10488000DB6801F0E1FEFB681B68DA69FB681B6806
:1048900022F00C02DA61FB681B68D969BB689A6870
:1048A000FB681B680A43DA6121E07B680C2B1CD192
:1048B000FB681868BB681968BB685A68BB68DB6826
:1048C00001F0FEFEFB681B68DA69FB681B6822F4D6
:1048D0004062DA61FB681B68D969BB689B681A0291
:1048E000FB681B680A43DA6101E00123FB75FB6882
:1048F000002283F83C20FB7D18461837BD4680BD5A
:1049000080B586B000AFF860B9607A600023FB75AF
:10491000FB6893F83C30012B01D10223AEE0FB6829
:10492000012283F83C207B680C2B00F29F8001A2BF
:1049300052F823F0694900086D4A00086D4A0008E2
:104940006D4A0008A94900086D4A00086D4A000830
:104950006D4A0008EB4900086D4A00086D4A0008DE
:104960006D4A00082B4A0008FB681B68B9681846A6
:1049700001F018FBFB681B689A69FB681B6842F032
:1049800008029A61FB681B689A69FB681B6822F041
:1049900004029A61FB681B689969BB681A69FB6825
:1049A0001B680A439A6164E0FB681B68B968184693
:1049B00001F068FBFB681B689A69FB681B6842F49E
:1049C00000629A61FB681B689A69FB681B6822F4A5
:1049D00080629A61FB681B689969BB681B691A024F
:1049E000FB681B680A439A6143E0FB681B68B9686F
:1049F000184601F0BDFBFB681B68DA69FB681B68A1
:104A000042F00802DA61FB681B68DA69FB681B6820
:104A100022F00402DA61FB681B68D969BB681A6975
:104A2000FB681B680A43DA6123E0FB681B68B9680E
:104A3000184601F011FCFB681B68DA69FB681B680B
:104A400042F40062DA61FB681B68DA69FB681B6884
:104A500022F48062DA61FB681B68D969BB681B6954
:104A60001A02FB681B680A43DA6102E00123FB7546
:104A700000BFFB68002283F83C20FB7D18461837F6
:104A8000BD4680BD80B58CB000AFF860B9607A607B
:104A90003B60002387F82F307A683B689A4200F029
:104AA000BE80FB6893F83C30012B01D10223B7E0B4
:104AB000FB68012283F83C20FB68022283F83D203A
:104AC000BB681B683B61BB685B687B61BB689B68BC
:104AD000BB61BB68DB68FB61BB681B697B62BB6851
:104AE0005B69BB627B68002B03D07B68042B09D019
:104AF00011E0FB681B6807F110021146184601F02F
:104B000051FA0CE0FB681B6807F1100211461846C9
:104B100001F0B8FA03E0012387F82F3000BF97F8BF
:104B20002F30002B70D13B68002B03D03B68042B47
:104B300033D065E0FB681868BB689969BB68DA69BF
:104B4000BB681B6A01F070FCFB681B689A69FB6814
:104B50001B6822F00C029A61FB681B689A68FB686C
:104B60001B6822F070029A60FB681B689A68FB68F9
:104B70001B6842F050029A60FB681B689A68FB68E9
:104B80001B6822F007029A60FB681B689A68FB6842
:104B90001B6842F006029A6036E0FB681868BB6842
:104BA0009969BB68DA69BB681B6A01F0E0FCFB68C5
:104BB0001B689A69FB681B6822F440629A61FB6873
:104BC0001B689A68FB681B6822F070029A60FB6899
:104BD0001B689A68FB681B6842F060029A60FB6879
:104BE0001B689A68FB681B6822F007029A60FB68E2
:104BF0001B689A68FB681B6842F006029A6003E033
:104C0000012387F82F3000BFFB68012283F83D2085
:104C1000FB68002283F83C2097F82F3000E0012346
:104C200018463037BD4680BD80B588B002AFF86009
:104C3000B9607A603B603B6A1B0A013301933B6AAF
:104C400000933B687A68B968F86800F007F8034693
:104C5000FB75FB7D18461837BD4680BD80B586B014
:104C600000AFF860B9607A603B600023FB75FB68B9
:104C700093F84630DBB2022B01D102232BE1FB6813
:104C800093F84630DBB2012B0BD13B68002B04D1EB
:104C90003B6A002B01D001231DE1FB68022283F84F
:104CA00046207B68B3F5804F00F0D8807B68B3F571
:104CB000804F00F2EE807B68B3F5005F00F0B380B8
:104CC0007B68B3F5005F00F2E4807B68B3F5805F3A
:104CD00000F08E807B68B3F5805F00F2DA807B683D
:104CE000B3F5006F69D07B68B3F5006F00F2D18037
:104CF0007B68B3F5806F45D07B68B3F5806F00F2B9
:104D0000C8807B68B3F5807F04D07B68B3F5007FF3
:104D10001CD0BEE0FB681B6A714ADA63FB681B6A41
:104D2000704A1A64FB681B6A6F4ADA64FB68186A87
:104D30003968FB681B684C331A467B6A0DF013FA1E
:104D40000346002B00F0A8800123C4E0FB685B6AE7
:104D5000664ADA63FB685B6A654A1A64FB685B6AE9
:104D6000614ADA64FB68586A3968FB681B684C332F
:104D70001A467B6A0DF0F7F90346002B00F08E808F
:104D80000123A8E0FB689B6A584ADA63FB689B6AC8
:104D9000574A1A64FB689B6A534ADA64FB68986A4C
:104DA0003968FB681B684C331A467B6A0DF0DBF9E7
:104DB0000346002B74D001238DE0FB68DB6A4B4A6D
:104DC000DA63FB68DB6A4A4A1A64FB68DB6A464AB4
:104DD000DA64FB68D86A3968FB681B684C331A468A
:104DE0007B6A0DF0C0F90346002B5BD0012372E013
:104DF000FB681B6B3D4ADA63FB681B6B3C4A1A6419
:104E0000FB681B6B384ADA64FB68186B3968FB680F
:104E10001B684C331A467B6A0DF0A5F90346002B3C
:104E200042D0012357E0FB685B6B324ADA63FB68D0
:104E30005B6B314A1A64FB685B6B2B4ADA64FB6874
:104E4000586B3968FB681B684C331A467B6A0DF057
:104E50008AF90346002B29D001233CE0FB689B6BB9
:104E6000264ADA63FB689B6B254A1A64FB689B6BD6
:104E70001D4ADA64FB68986B3968FB681B684C3321
:104E80001A467B6A0DF06FF90346002B10D0012300
:104E900021E00123FB750CE000BF0AE000BF08E041
:104EA00000BF06E000BF04E000BF02E000BF00E07A
:104EB00000BFFB7D002B0DD1FB681B68B9683A6A07
:104EC0000A439A64FB681B68D968FB681B687A68A8
:104ED0000A43DA60FB7D18461837BD4680BD00BF27
:104EE000D15D0008FF5D0008FF5A0008915B0008D3
:104EF000395C00082D8A0008518A00081B5E0008F2
:104F0000495E000880B584B000AF78603960002346
:104F1000FB733B68B3F5804F50D03B68B3F5804FCF
:104F200052D83B68B3F5005F42D03B68B3F5005FF1
:104F30004AD83B68B3F5805F34D03B68B3F5805FF7
:104F400042D83B68B3F5006F26D03B68B3F5006FDD
:104F50003AD83B68B3F5806F18D03B68B3F5806FE3
:104F600032D83B68B3F5807F04D03B68B3F5007F4F
:104F700006D029E07B681B6A18460DF0BCF926E0D4
:104F80007B685B6A18460DF0B6F920E07B689B6A87
:104F900018460DF0B0F91AE07B68DB6A18460DF090
:104FA000AAF914E07B681B6B18460DF0A4F90EE01B
:104FB0007B685B6B18460DF09EF908E07B689B6B85
:104FC00018460DF098F902E00123FB7300BFFB7B4C
:104FD000002B0CD17B681B68D9683B68DA437B687F
:104FE0001B680A40DA607B68012283F84620FB7B5D
:104FF00018461037BD4680BD80B588B002AFF86056
:10500000B9607A603B603B6A1B0A013301933B6ADB
:1050100000933B687A68B968F86800F007F80346BF
:10502000FB75FB7D18461837BD4680BD80B586B040
:1050300000AFF860B9607A603B600023FB75FB68E5
:1050400093F84630DBB2022B01D102232BE1FB683F
:1050500093F84630DBB2012B0BD13B68002B04D117
:105060003B6A002B01D001231DE1FB68022283F87B
:1050700046207B68B3F5804F00F0D8807B68B3F59D
:10508000804F00F2EE807B68B3F5005F00F0B380E4
:105090007B68B3F5005F00F2E4807B68B3F5805F66
:1050A00000F08E807B68B3F5805F00F2DA807B6869
:1050B000B3F5006F69D07B68B3F5006F00F2D18063
:1050C0007B68B3F5806F45D07B68B3F5806F00F2E5
:1050D000C8807B68B3F5807F04D07B68B3F5007F20
:1050E0001CD0BEE0FB681B6A714ADA63FB681B6A6E
:1050F000704A1A64FB681B6A6F4ADA64FB68186AB4
:10510000FB681B684C3319463A687B6A0DF02BF834
:105110000346002B00F0A8800123C4E0FB685B6A13
:10512000664ADA63FB685B6A654A1A64FB685B6A15
:10513000614ADA64FB68586AFB681B684C3319469D
:105140003A687B6A0DF00FF80346002B00F08E8062
:105150000123A8E0FB689B6A584ADA63FB689B6AF4
:10516000574A1A64FB689B6A534ADA64FB68986A78
:10517000FB681B684C3319463A687B6A0CF0F3FFF6
:105180000346002B74D001238DE0FB68DB6A4B4A99
:10519000DA63FB68DB6A4A4A1A64FB68DB6A464AE0
:1051A000DA64FB68D86AFB681B684C3319463A68B6
:1051B0007B6A0CF0D8FF0346002B5BD0012372E022
:1051C000FB681B6B3D4ADA63FB681B6B3C4A1A6445
:1051D000FB681B6B384ADA64FB68186BFB681B685A
:1051E0004C3319463A687B6A0CF0BDFF0346002B2E
:1051F00042D0012357E0FB685B6B324ADA63FB68FD
:105200005B6B314A1A64FB685B6B2B4ADA64FB68A0
:10521000586BFB681B684C3319463A687B6A0CF084
:10522000A2FF0346002B29D001233CE0FB689B6BC7
:10523000264ADA63FB689B6B254A1A64FB689B6B02
:105240001D4ADA64FB68986BFB681B684C3319468F
:105250003A687B6A0CF087FF0346002B10D00123CD
:1052600021E00123FB750CE000BF0AE000BF08E06D
:1052700000BF06E000BF04E000BF02E000BF00E0A6
:1052800000BFFB7D002B0DD1FB681B68B9683A6A33
:105290000A439A64FB681B68D968FB681B687A68D4
:1052A0000A43DA60FB7D18461837BD4680BD00BF53
:1052B000D15D0008FF5D0008FF5A0008A15C0008EE
:1052C000695D00082D8A0008518A00081B5E0008ED
:1052D000495E000880B584B000AF78603960002373
:1052E000FB733B68B3F5804F50D03B68B3F5804FFC
:1052F00052D83B68B3F5005F42D03B68B3F5005F1E
:105300004AD83B68B3F5805F34D03B68B3F5805F23
:1053100042D83B68B3F5006F26D03B68B3F5006F09
:105320003AD83B68B3F5806F18D03B68B3F5806F0F
:1053300032D83B68B3F5807F04D03B68B3F5007F7B
:1053400006D029E07B681B6A18460CF0D4FF26E0E3
:105350007B685B6A18460CF0CEFF20E07B689B6A96
:1053600018460CF0C8FF1AE07B68DB6A18460CF0A0
:10537000C2FF14E07B681B6B18460CF0BCFF0EE00C
:105380007B685B6B18460CF0B6FF08E07B689B6B94
:1053900018460CF0B0FF02E00123FB7300BFFB7B5B
:1053A000002B0CD17B681B68D9683B68DA437B68AB
:1053B0001B680A40DA607B68012283F84620FB7B89
:1053C00018461037BD4680BD80B483B000AF78600A
:1053D00039607B6893F83C30012B01D1022314E043
:1053E0007B68012283F83C207B68022283F83D2001
:1053F0007B681B683A685A617B68012283F83D200C
:105400007B68002283F83C20002318460C37BD46F9
:105410005DF8047B7047000080B586B000AFF8608F
:10542000B9607A600023FB75FB6893F83C30012B70
:1054300001D10223B8E0FB68012283F83C20FB681D
:10544000022283F83D20BB685B68002B02D0012B51
:1054500009D021E0FB681B689A68FB681B6822F48E
:105460007F429A601BE0BB68DB68002B09D0FB68B9
:10547000012283F83D20FB68002283F83C200123B1
:1054800092E0FB681868BB68D968BB689A68BB681B
:105490001B6901F06DF902E00123FB7500BFFB7D84
:1054A000002B78D17B680C2B74D801A252F823F022
:1054B000E5540008955500089555000895550008D5
:1054C0001155000895550008955500089555000898
:1054D0003D5500089555000895550008955500085C
:1054E00069550008BB681B68002B08D0FB681B6867
:1054F0009A69FB681B6842F080029A614BE0FB6886
:105500001B689A69FB681B6822F080029A6142E07E
:10551000BB681B68002B08D0FB681B689A69FB6896
:105520001B6842F400429A6135E0FB681B689A6987
:10553000FB681B6822F400429A612CE0BB681B6880
:10554000002B08D0FB681B68DA69FB681B6842F017
:105550008002DA611FE0FB681B68DA69FB681B6880
:1055600022F08002DA6116E0BB681B68002B08D0CD
:10557000FB681B68DA69FB681B6842F40042DA6169
:1055800009E0FB681B68DA69FB681B6822F40042CB
:10559000DA6100E000BFFB68012283F83D20FB6870
:1055A000002283F83C20FB7D18461837BD4680BD9D
:1055B00080B584B000AF786039600023FB737B68EE
:1055C00093F83C30012B01D10223B4E07B68012227
:1055D00083F83C207B68022283F83D207B681B68AF
:1055E0009B68BB60BB6823F07703BB60BB6823F498
:1055F0007F43BB607B681B68BA689A603B681B6826
:10560000B3F5005F3ED0B3F5005F00F28780B3F5DD
:10561000805F00F08680B3F5805F7FD8702B1AD052
:10562000702B7BD8602B50D0602B77D8502B3CD080
:10563000502B73D8402B58D0402B6FD8302B64D0D0
:10564000302B6BD8202B60D0202B67D8002B5CD060
:10565000102B5AD062E07B6818683B6899683B68F9
:105660005A683B68DB6801F083F87B681B689B68BD
:10567000BB60BB6843F07703BB607B681B68BA689C
:105680009A604FE07B6818683B6899683B685A6885
:105690003B68DB6801F06CF87B681B689A687B6884
:1056A0001B6842F480429A603CE07B6818683B6863
:1056B00059683B68DB681A4600F02AFF7B681B6864
:1056C0005021184601F039F82CE07B6818683B68D7
:1056D00059683B68DB681A4600F086FF7B681B68E8
:1056E0006021184601F029F81CE07B6818683B68C7
:1056F00059683B68DB681A4600F00AFF7B681B6844
:105700004021184601F019F80CE07B681A683B68E4
:105710001B681946104601F010F803E00123FB73E3
:1057200000E000BF7B68012283F83D207B680022F7
:1057300083F83C20FB7B18461037BD4680BD80B403
:1057400085B000AF786039607B681B685B68FB6080
:10575000FB6823F08003FB60FA683B681343FB603F
:105760007B681B68FA685A60002318461437BD46E8
:105770005DF8047B704780B582B000AF7860396017
:105780007B6893F83C30012B01D1022331E07B6828
:10579000012283F83C207B68022283F83D2039688F
:1057A000786800F0AFFD0346002B09D07B6801222A
:1057B00083F83D207B68002283F83C20012318E019
:1057C0007B681B68DA687B681B6822F04002DA603D
:1057D0007B681B68DA687B681B6822F48042DA60A9
:1057E0007B68012283F83D207B68002283F83C20FF
:1057F000002318460837BD4680BD80B582B000AF93
:10580000786039607B6893F83C30012B01D102232A
:1058100031E07B68012283F83C207B68022283F818
:105820003D203968786800F06DFD0346002B09D0F3
:105830007B68012283F83D207B68002283F83C20AE
:10584000012318E07B681B68DA687B681B6842F0FC
:105850004002DA607B681B68DA687B681B6822F4A8
:105860008042DA607B68012283F83D207B68002259
:1058700083F83C20002318460837BD4680BD000051
:1058800080B485B000AF786039600023FB603B686E
:105890000C2B31D801A252F823F000BFD1580008D8
:1058A000F9580008F9580008F9580008DB580008B2
:1058B000F9580008F9580008F9580008E558000898
:1058C000F9580008F9580008F9580008EF5800087E
:1058D0007B681B685B6BFB600FE07B681B689B6BE6
:1058E000FB600AE07B681B68DB6BFB6005E07B68A4
:1058F0001B681B6CFB6000E000BFFB681846143798
:10590000BD465DF8047B704780B483B000AF78601B
:1059100000BF0C37BD465DF8047B704780B483B090
:1059200000AF786000BF0C37BD465DF8047B704760
:1059300080B483B000AF786000BF0C37BD465DF81F
:10594000047B704780B483B000AF786000BF0C3731
:10595000BD465DF8047B704780B483B000AF7860CB
:1059600000BF0C37BD465DF8047B704780B483B040
:1059700000AF786000BF0C37BD465DF8047B704710
:1059800080B483B000AF786000BF0C37BD465DF8CF
:10599000047B704780B483B000AF786000BF0C37E1
:1059A000BD465DF8047B704780B483B000AF78607B
:1059B00000BF0C37BD465DF8047B704780B483B0F0
:1059C00000AF786000BF0C37BD465DF8047B7047C0
:1059D00080B483B000AF78607B6893F83D30DBB271
:1059E00018460C37BD465DF8047B704780B483B021
:1059F00000AF78607B6893F83D30DBB218460C3717
:105A0000BD465DF8047B704780B483B000AF78601A
:105A10007B6893F83D30DBB218460C37BD465DF825
:105A2000047B704780B483B000AF78607B6893F8E4
:105A30003D30DBB218460C37BD465DF8047B70473D
:105A400080B483B000AF78607B6893F83D30DBB200
:105A500018460C37BD465DF8047B704780B483B0B0
:105A600000AF78607B6893F83D30DBB218460C37A6
:105A7000BD465DF8047B704780B483B000AF7860AA
:105A80007B681B7F18460C37BD465DF8047B70476A
:105A900080B485B000AF786039603B68002B04D1DA
:105AA0007B6893F83E30DBB213E03B68042B04D1F3
:105AB0007B6893F83F30DBB20BE03B68082B04D1E6
:105AC0007B6893F84030DBB203E07B6893F84130A9
:105AD000DBB2FB73FB7B18461437BD465DF8047BD5
